:020000040800F2
:1000000000500020A52D0008B12C0008BD2C0008D0
:10001000C32C0008C92C0008CF2C000800000000E9
:10002000000000000000000000000000D52C0008C7
:10003000E12C000800000000ED2C0008F92C00085D
:10004000ED2D0008ED2D0008ED2D0008ED2D000828
:10005000ED2D0008ED2D0008ED2D0008ED2D000818
:10006000ED2D0008ED2D0008ED2D0008ED2D000808
:10007000ED2D0008ED2D0008ED2D0008ED2D0008F8
:10008000ED2D0008ED2D0008ED2D0008ED2D0008E8
:10009000052D0008ED2D0008ED2D0008ED2D0008C0
:1000A000ED2D0008ED2D0008ED2D0008ED2D0008C8
:1000B000192D0008ED2D0008ED2D0008ED2D00088C
:1000C000ED2D0008ED2D0008ED2D0008ED2D0008A8
:1000D000ED2D0008ED2D0008ED2D0008ED2D000898
:1000E0002D2D0008ED2D0008ED2D0008000000006A
:1000F0000000000000000000000000000000000000
:0C01000000000000000000005FF808F1A3
:10010C0010B5054C237833B9044B13B10448AFF345
:10011C0000800123237010BD0C00002000000000A3
:10012C00482E000808B5034B1BB103490348AFF335
:10013C00008008BD0000000010000020482E0008C0
:10014C0080B500AF084A084B1B6843F010031360DE
:10015C00032000F09BFE002000F008F802F08EFC5B
:10016C000023184680BD00BF0020024080B582B03D
:10017C0000AF7860124B1A68124B1B7819464FF47B
:10018C007A73B3FBF1F3B2FBF3F3184600F0B3FE52
:10019C000346002B01D001230EE07B680F2B0AD8FD
:1001AC00002279684FF0FF3000F07BFE064A7B6836
:1001BC001360002300E0012318460837BD4680BDBC
:1001CC0008000020040000200000002080B400AFD4
:1001DC00054B1B781A46054B1B681344034A1360E6
:1001EC0000BFBD4680BC7047040000205C000020AE
:1001FC0080B400AF024B1B681846BD4680BC7047EC
:10020C005C00002080B584B000AF7860FFF7F0FF91
:10021C00B8607B68FB60FB68B3F1FF3F05D0094B0E
:10022C001B781A46FB681344FB6000BFFFF7E0FF26
:10023C000246BB68D21AFB689A42F7D300BF10374C
:10024C00BD4680BD0400002080B584B000AF78604E
:10025C007B68002B01D10123ECE07B6893F8203004
:10026C00DBB2002B02D1786802F02AFC7B681B6899
:10027C007A681268126822F002021A60FFF7B8FF5F
:10028C00F86012E0FFF7B4FF0246FB68D31A0A2BA2
:10029C000BD97B685B6A43F400327B685A627B68DB
:1002AC00052283F820200123C4E07B681B685B686F
:1002BC0003F00203002BE5D17B681B687A68126897
:1002CC00126842F001021A60FFF792FFF86012E028
:1002DC00FFF78EFF0246FB68D31A0A2B0BD97B68FB
:1002EC005B6A43F400327B685A627B68052283F8B0
:1002FC00202001239EE07B681B685B6803F00103F0
:10030C00002BE5D07B681B7E012B08D17B681B681A
:10031C007A681268126842F080021A6007E07B6803
:10032C001B687A681268126822F080021A607B6877
:10033C005B7E012B08D17B681B687A681268126897
:10034C0042F040021A6007E07B681B687A6812680A
:10035C00126822F040021A607B689B7E012B08D148
:10036C007B681B687A681268126842F020021A6077
:10037C0007E07B681B687A681268126822F020021A
:10038C001A607B68DB7E012B08D17B681B687A685E
:10039C001268126822F010021A6007E07B681B6872
:1003AC007A681268126842F010021A607B681B7F30
:1003BC00012B08D17B681B687A681268126842F0BE
:1003CC0008021A6007E07B681B687A68126812687A
:1003DC0022F008021A607B685B7F012B08D17B68D6
:1003EC001B687A681268126842F004021A6007E00F
:1003FC007B681B687A681268126822F004021A6023
:10040C007B681B687A6891687A68D26811437A684D
:10041C00126911437A68526911437A685268013A39
:10042C000A43DA617B6800225A627B68012283F8F6
:10043C002020002318461037BD4680BD80B487B0FD
:10044C0000AF786039607B681B687B617B6893F8D0
:10045C002030FB74FB7C012B03D0FB7C022B40F087
:10046C00AA807B69D3F8003243F001027B69C3F8A0
:10047C0000223B685B6903F01F03012202FA03F3BD
:10048C00FB607B69D3F81C22FB68DB431A407B6959
:10049C00C3F81C223B68DB69002B23D17B69D3F8A2
:1004AC000C22FB68DB431A407B69C3F80C223B68C7
:1004BC005A693B68DB6819043B685B689BB219435B
:1004CC007B69483243F832103B685B693A68926842
:1004DC0011043A68126892B20A4379694833DB0016
:1004EC000B445A603B68DB69012B22D17B69D3F842
:1004FC000C22FB681A437B69C3F80C223B685A69CF
:10050C003B681B6819043B685B689BB219437B69A9
:10051C00483243F832103B685B693A6892681104C0
:10052C003A68D26892B20A4379694833DB000B44CB
:10053C005A603B689B69002B09D17B69D3F8042274
:10054C00FB68DB431A407B69C3F8042207E07B6934
:10055C00D3F80422FB681A437B69C3F804223B6876
:10056C001B69002B09D17B69D3F81422FB68DB4390
:10057C001A407B69C3F8142207E07B69D3F8142274
:10058C00FB681A437B69C3F814223B681B6A012B76
:10059C0007D17B69D3F81C22FB681A437B69C3F82B
:1005AC001C227B69D3F8003223F001027B69C3F86B
:1005BC000022002306E07B685B6A43F480227B68A0
:1005CC005A62012318461C37BD4680BC704780B563
:1005DC0084B000AF78607B6893F82030DBB2012BDD
:1005EC002ED17B68022283F820207B681B687A68F6
:1005FC001268126822F001021A60FFF7F9FDF86028
:10060C0012E0FFF7F5FD0246FB68D31A0A2B0BD953
:10061C007B685B6A43F400327B685A627B68052214
:10062C0083F82020012312E07B681B685B6803F0D1
:10063C000103002BE5D17B6800225A62002306E0FF
:10064C007B685B6A43F400227B685A62012318467C
:10065C001037BD4680BD80B487B000AFF860B9607C
:10066C007A603B60FB6893F82030FB75FB7D012BB7
:10067C0003D0FB7D022B40F0F480BB68002B0ED125
:10068C00FB681B68DB6803F00303002B16D1FB68C7
:10069C005B6A43F40012FB685A620123E8E0FB68D2
:1006AC001B681B6903F00303002B07D1FB685B6A13
:1006BC0043F40012FB685A620123D9E0FB681A6804
:1006CC00BB681B331B0113441B6803F004027B68DB
:1006DC009A607B689B68002B0CD1FB681A68BB681E
:1006EC001B331B0113441B685B0DC3F30A027B68AD
:1006FC001A600BE0FB681A68BB681B331B011344C0
:10070C001B68DB0823F060427B685A60FB681A6840
:10071C00BB681B331B0113441B685B0803F001020D
:10072C007B68DA60FB681A68BB681B331B011344D7
:10073C0004331B6803F00F027B681A61FB681A68AC
:10074C00BB681B331B01134404331B681B0ADAB24E
:10075C007B689A61FB681A68BB681B331B011344E6
:10076C0004331B681B0C9AB27B685A61FB681A68CD
:10077C00BB681B01134403F5DC731B68DAB23B68DE
:10078C001A703B680133FA681168BA6812010A449E
:10079C0002F5DC721268120AD2B21A703B6802338C
:1007AC00FA681168BA6812010A4402F5DC72126820
:1007BC00120CD2B21A703B680333FA681168BA682B
:1007CC0012010A4402F5DC721268120ED2B21A70CF
:1007DC003B680433FA681168BA6812010A4402F5DE
:1007EC00DE721268D2B21A703B680533FA6811686F
:1007FC00BA6812010A4402F5DE721268120AD2B209
:10080C001A703B680633FA681168BA6812010A4418
:10081C0002F5DE721268120CD2B21A703B68073302
:10082C00FA681168BA6812010A4402F5DE7212689D
:10083C00120ED2B21A70BB68002B08D1FB681B6871
:10084C00FA681268D26842F02002DA6007E0FB68AE
:10085C001B68FA681268126942F020021A610023C0
:10086C0006E0FB685B6A43F48022FB685A62012352
:10087C0018461C37BD4680BC704780B485B000AFAD
:10088C00786039607B6893F82030FB73FB7B012B1D
:10089C0002D0FB7B022B09D17B681B687A6812683B
:1008AC0051693A680A435A61002306E07B685B6A27
:1008BC0043F480227B685A62012318461437BD46E4
:1008CC0080BC704780B58AB000AF786000237B6233
:1008DC007B681B685B693B627B681B685B68FB61C0
:1008EC007B681B689B68BB617B681B68DB687B61F2
:1008FC007B681B681B693B617B681B689B69FB60A1
:10090C003B6A03F00103002B7CD0BB6903F00103AD
:10091C00002B23D07B681B6801229A60BB6903F013
:10092C000203002B03D0786800F07DF916E0BB6958
:10093C0003F00403002B04D07B6A43F400637B6256
:10094C000CE0BB6903F00803002B04D07B6A43F472
:10095C0080537B6202E0786800F080F9BB6903F495
:10096C008073002B24D07B681B684FF480729A60D4
:10097C00BB6903F40073002B03D0786800F05CF9BA
:10098C0016E0BB6903F48063002B04D07B6A43F44C
:10099C0000537B620CE0BB6903F40063002B04D0B2
:1009AC007B6A43F480437B6202E0786800F05FF975
:1009BC00BB6903F48033002B24D07B681B684FF495
:1009CC0080329A60BB6903F40033002B03D0786843
:1009DC0000F03BF916E0BB6903F48023002B04D034
:1009EC007B6A43F400437B620CE0BB6903F4002395
:1009FC00002B04D07B6A43F480337B6202E078687E
:100A0C0000F03EF93B6A03F00803002B0CD07B6925
:100A1C0003F01003002B07D07B6A43F400737B6256
:100A2C007B681B681022DA603B6A03F00403002B1E
:100A3C000BD07B6903F00803002B06D07B681B6886
:100A4C000822DA60786800F024F93B6A03F00203AC
:100A5C00002B09D07B681B68DB6803F00303002BB9
:100A6C0002D0786801F0EAFF3B6A03F04003002BE8
:100A7C000CD03B6903F01003002B07D07B6A43F4C6
:100A8C0080637B627B681B6810221A613B6A03F0EF
:100A9C002003002B0BD03B6903F00803002B06D07E
:100AAC007B681B6808221A61786800F004F93B6ABD
:100ABC0003F01003002B09D07B681B681B6903F043
:100ACC000303002B02D0786800F0ECF83B6A03F4C7
:100ADC000033002B0BD0FB6903F01003002B06D066
:100AEC007B681B6810225A60786800F0EDF83B6A4E
:100AFC0003F48033002B0BD0FB6903F00803002BAD
:100B0C0006D07B681B6808225A60786800F0E5F80C
:100B1C003B6A03F40043002B75D0FB6903F004031C
:100B2C00002B6CD03B6A03F48073002B08D0FB685D
:100B3C0003F00103002B03D07B6A43F001037B62BB
:100B4C003B6A03F40073002B08D0FB6803F002032C
:100B5C00002B03D07B6A43F002037B623B6A03F4F5
:100B6C008063002B08D0FB6803F00403002B03D038
:100B7C007B6A43F004037B623B6A03F40063002B43
:100B8C003DD0FB6803F07003002B38D0FB6803F0FA
:100B9C007003302B17D0302B04D8102B09D0202BFE
:100BAC000CD024E0502B18D0602B1BD0402B0FD036
:100BBC001DE07B6A43F008037B6218E07B6A43F01C
:100BCC0010037B6213E07B6A43F020037B620EE030
:100BDC007B6A43F040037B6209E07B6A43F080034D
:100BEC007B6204E07B6A43F480737B6200BF7B68AA
:100BFC001B687A681268926922F070029A617B68AD
:100C0C001B6804225A607B6A002B08D07B685A6AE6
:100C1C007B6A1A437B685A62786800F067F800BFF9
:100C2C002837BD4680BD80B483B000AF786000BF6C
:100C3C000C37BD4680BC704780B483B000AF786081
:100C4C0000BF0C37BD4680BC704780B483B000AF8A
:100C5C00786000BF0C37BD4680BC704780B483B051
:100C6C0000AF786000BF0C37BD4680BC704780B4C5
:100C7C0083B000AF786000BF0C37BD4680BC7047B6
:100C8C0080B483B000AF786000BF0C37BD4680BC29
:100C9C00704780B483B000AF786000BF0C37BD469E
:100CAC0080BC704780B483B000AF786000BF0C3755
:100CBC00BD4680BC704780B483B000AF786000BF85
:100CCC000C37BD4680BC704780B483B000AF7860F1
:100CDC0000BF0C37BD4680BC704780B483B000AFFA
:100CEC00786000BF0C37BD4680BC704780B483B0C1
:100CFC0000AF786000BF0C37BD4680BC7047000069
:100D0C0080B485B000AF78607B6803F00703FB60AC
:100D1C000C4BDB68BB60BA684FF6FF031340BB603B
:100D2C00FB681A02BB68134343F0BF6343F4003300
:100D3C00BB60044ABB68D36000BF1437BD4680BC9F
:100D4C00704700BF00ED00E080B400AF044BDB68DF
:100D5C001B0A03F007031846BD4680BC704700BF52
:100D6C0000ED00E080B483B000AF0346FB7108498E
:100D7C0097F907305B09FA7902F01F02012000FA9B
:100D8C0002F241F8232000BF0C37BD4680BC7047EF
:100D9C0000E100E080B483B000AF03463960FB7122
:100DAC0097F90730002B0BDA0D49FB7903F00F0391
:100DBC00043B3A68D2B21201D2B20B441A7609E063
:100DCC00084997F907303A68D2B21201D2B20B44F3
:100DDC0083F8002300BF0C37BD4680BC704700BFB2
:100DEC0000ED00E000E100E080B489B000AFF860F5
:100DFC00B9607A60FB6803F00703FB61FB69C3F120
:100E0C000703042B28BF0423BB61FB690433062BA7
:100E1C0002D9FB69033B00E000237B610122BB6923
:100E2C0002FA03F35A1EBB681A407B699A400121EF
:100E3C007B6901FA03F3591E7B680B401343184678
:100E4C002437BD4680BC704780B582B000AF786057
:100E5C007B68013BB3F1807F01D301230FE00A4A89
:100E6C007B68013B53600F214FF0FF30FFF792FF7F
:100E7C00054B00229A60044B07221A600023184687
:100E8C000837BD4680BD00BF10E000E080B582B0E1
:100E9C0000AF78607868FFF733FF00BF0837BD46B6
:100EAC0080BD80B586B000AF0346B9607A60FB7335
:100EBC0000237B61FFF748FF78617A68B96878692D
:100ECC00FFF792FF024697F90F3011461846FFF7CD
:100EDC0061FF00BF1837BD4680BD80B582B000AF42
:100EEC000346FB7197F907301846FFF73BFF00BF2D
:100EFC000837BD4680BD80B582B000AF7860786899
:100F0C00FFF7A2FF034618460837BD4680BD000018
:100F1C0080B48BB000AF786039600023FB61002394
:100F2C00BB6100237B6100233B6200233B610023F8
:100F3C007B6227E101227B6A02FA03F3FB613B68C7
:100F4C001A68FB691340BB61BA69FB699A4240F0AD
:100F5C0016813B685B68122B34D0122B0DD8022BF8
:100F6C002BD0022B04D8002B31D0012B1CD048E005
:100F7C00032B43D0112B1BD043E0874A934226D03E
:100F8C00854A934206D8854A934220D0844A93429C
:100F9C001DD036E0834A934219D0834A934216D02F
:100FAC00824A934213D02CE03B68DB683B6228E01A
:100FBC003B68DB6804333B6223E03B68DB68083347
:100FCC003B621EE03B68DB680C333B6219E03B681C
:100FDC009B68002B02D104233B6212E03B689B68A8
:100FEC00012B05D108233B627B68FA691A6108E082
:100FFC0008233B627B68FA695A6102E000233B627A
:10100C0000BFBB69FF2B01D87B6801E07B68043310
:10101C00FB60BB69FF2B02D87B6A9B0002E07B6AFA
:10102C00083B9B003B61FB681A680F213B6901FA86
:10103C0003F3DB431A40396A3B6901FA03F31A43A1
:10104C00FB681A603B685B6803F08053002B00F070
:10105C009680574A564B9B6943F001039361544B5E
:10106C009B6903F00103BB60BB68524A7B6A9B0817
:10107C00023352F823307B617B6A03F003039B003D
:10108C000F2202FA03F3DB437A6913407B617B681E
:10109C00494A934213D07B68484A93420DD07B68EF
:1010AC00474A934207D07B68464A934201D10323B7
:1010BC0006E0042304E0022302E0012300E0002305
:1010CC007A6A02F00302920093407A6913437B61BF
:1010DC0038497B6A9B0802337A6941F823203B68C4
:1010EC005B6803F48033002B06D03749364B1A6803
:1010FC00BB6913430B6006E03349334B1A68BB6979
:10110C00DB4313400B603B685B6803F40033002B3C
:10111C0006D02D492C4B5A68BB6913434B6006E033
:10112C002949294B5A68BB69DB4313404B603B6828
:10113C005B6803F48013002B06D02349224B9A687A
:10114C00BB6913438B6006E01F491F4B9A68BB6950
:10115C00DB4313408B603B685B6803F40013002B8C
:10116C0006D01949184BDA68BB691343CB6006E00B
:10117C001549154BDA68BB69DB431340CB607B6ABE
:10118C0001337B627B6A0F2B7FF6D4AE00BF2C370A
:10119C00BD4680BC704700BF00002110000011103C
:1011AC00000012100000311000003210000022105C
:1011BC00001002400000014000080140000C0140FA
:1011CC0000100140001401400004014080B483B0C1
:1011DC0000AF78600B467B8013467B707B78002BCE
:1011EC0003D07A887B681A6103E07B881A047B68D9
:1011FC001A6100BF0C37BD4680BC704780B582B009
:10120C0000AF0346FB80084B5A69FB881340002B48
:10121C0006D0054AFB885361FB88184601F0EAFBAF
:10122C0000BF0837BD4680BD0004014080B586B0C4
:10123C0000AF786000233B617B681B6803F00103FF
:10124C00002B00F08780924B5B6803F00C03042B9F
:10125C000CD08F4B5B6803F00C03082B12D18C4B1A
:10126C005B6803F48033B3F5803F0BD1884B1B686C
:10127C0003F40033002B6CD07B685B68002B68D1C7
:10128C0001232DE27B685B68B3F5803F06D1804A71
:10129C007F4B1B6843F4803313602EE07B685B68E4
:1012AC00002B0CD17A4A7A4B1B6823F480331360E1
:1012BC00774A774B1B6823F4802313601DE07B680F
:1012CC005B68B3F5A02F0CD1714A714B1B6843F4CA
:1012DC00802313606E4A6E4B1B6843F4803313609B
:1012EC000BE06B4A6A4B1B6823F480331360684A2B
:1012FC00674B1B6823F4802313607B685B68002BAF
:10130C0013D0FEF775FF386108E0FEF771FF024657
:10131C003B69D31A642B01D90323E1E15C4B1B68B5
:10132C0003F40033002BF0D014E0FEF761FF3861BA
:10133C0008E0FEF75DFF02463B69D31A642B01D926
:10134C000323CDE1524B1B6803F40033002BF0D187
:10135C0000E000BF7B681B6803F00203002B63D026
:10136C004B4B5B6803F00C03002B0BD0484B5B68BA
:10137C0003F00C03082B1CD1454B5B6803F4803342
:10138C00002B16D1424B1B6803F00203002B05D037
:10139C007B681B69012B01D00123A1E13C493C4B2B
:1013AC001B6823F0F8027B685B69DB0013430B605E
:1013BC003AE07B681B69002B20D0364B01221A6067
:1013CC00FEF716FF386108E0FEF712FF02463B6994
:1013DC00D31A022B01D9032382E12D4B1B6803F096
:1013EC000203002BF0D02A49294B1B6823F0F8028A
:1013FC007B685B69DB0013430B6015E0254B002217
:10140C001A60FEF7F5FE386108E0FEF7F1FE0246C1
:10141C003B69D31A022B01D9032361E11C4B1B68D6
:10142C0003F00203002BF0D17B681B6803F0080368
:10143C00002B39D07B689B69002B19D0164B0122ED
:10144C001A60FEF7D5FE386108E0FEF7D1FE0246C1
:10145C003B69D31A022B01D9032341E10C4B5B6A84
:10146C0003F00203002BF0D0012000F0B1FA1BE0D6
:10147C00094B00221A60FEF7BBFE38610EE0FEF746
:10148C00B7FE02463B69D31A022B07D9032327E187
:10149C00001002400000424280044242924B5B6AC0
:1014AC0003F00203002BEAD17B681B6803F00403F2
:1014BC00002B00F0A6800023FB758B4BDB6903F03F
:1014CC008053002B0DD1884A874BDB6943F0805346
:1014DC00D361854BDB6903F08053FB60FB68012310
:1014EC00FB75824B1B6803F48073002B18D17F4A69
:1014FC007E4B1B6843F480731360FEF779FE3861F2
:10150C0008E0FEF775FE02463B69D31A642B01D93D
:10151C000323E5E0754B1B6803F48073002BF0D0BC
:10152C007B68DB68012B06D16F4A6F4B1B6A43F05B
:10153C00010313622DE07B68DB68002B0CD16A4A37
:10154C00694B1B6A23F001031362674A664B1B6AE3
:10155C0023F0040313621CE07B68DB68052B0CD1C1
:10156C00614A614B1B6A43F0040313625E4A5E4B93
:10157C001B6A43F0010313620BE05B4A5A4B1B6A74
:10158C0023F001031362584A574B1B6A23F00403E0
:10159C0013627B68DB68002B15D0FEF729FE3861DF
:1015AC000AE0FEF725FE02463B69D31A41F2883267
:1015BC00934201D9032393E04B4B1B6A03F00203C4
:1015CC00002BEED014E0FEF713FE38610AE0FEF7B4
:1015DC000FFE02463B69D31A41F28832934201D97D
:1015EC0003237DE0404B1B6A03F00203002BEED17A
:1015FC00FB7D012B05D13C4A3B4BDB6923F080532F
:10160C00D3617B68DB69002B69D0374B5B6803F0D7
:10161C000C03082B61D07B68DB69022B46D1344B61
:10162C0000221A60FEF7E4FD386108E0FEF7E0FDE9
:10163C0002463B69D31A022B01D9032350E02A4BF3
:10164C001B6803F00073002BF0D17B681B6AB3F5A9
:10165C00803F08D12449244B5B6823F400327B681B
:10166C009B6813434B6020481F4B5B6823F4741238
:10167C007B68196A7B685B6A0B43134343601C4BA2
:10168C0001221A60FEF7B4FD386108E0FEF7B0FDE8
:10169C0002463B69D31A022B01D9032320E0124BDB
:1016AC001B6803F00073002BF0D018E0104B0022E5
:1016BC001A60FEF79DFD386108E0FEF799FD0246C1
:1016CC003B69D31A022B01D9032309E0064B1B6893
:1016DC0003F00073002BF0D101E0012300E00023A4
:1016EC0018461837BD4680BD0010024000700040FF
:1016FC006000424280B584B000AF7860396000234E
:10170C00FB607E4B1B6803F007023B689A4210D2C9
:10171C007A497A4B1B6823F007023B6813430B6032
:10172C00764B1B6803F007023B689A4201D00123F9
:10173C00E0E07B681B6803F00203002B20D07B6881
:10174C001B6803F00403002B05D06D4A6C4B5B68DF
:10175C0043F4E06353607B681B6803F00803002BC1
:10176C0005D0674A664B5B6843F460535360644929
:10177C00634B5B6823F0F0027B689B6813434B6000
:10178C007B681B6803F00103002B6AD07B685B68E5
:10179C00012B07D15A4B1B6803F40033002B15D1D6
:1017AC000123A7E07B685B68022B07D1544B1B68B5
:1017BC0003F00073002B09D101239BE0504B1B68F5
:1017CC0003F00203002B01D1012393E04C494C4B55
:1017DC005B6823F003027B685B6813434B60FEF786
:1017EC0007FDF8607B685B68012B12D10AE0FEF7FD
:1017FC00FFFC0246FB68D31A41F28832934201D9AE
:10180C00032377E03E4B5B6803F00C03042BEED113
:10181C0027E07B685B68022B1DD10AE0FEF7E8FC31
:10182C000246FB68D31A41F28832934201D9032352
:10183C0060E0334B5B6803F00C03082BEED110E037
:10184C00FEF7D6FC0246FB68D31A41F2883293426B
:10185C0001D903234EE02A4B5B6803F00C03002BE9
:10186C00EED1264B1B6803F007023B689A4210D955
:10187C002249224B1B6823F007023B6813430B6081
:10188C001E4B1B6803F007023B689A4201D00123F0
:10189C0030E07B681B6803F00403002B08D0184968
:1018AC00174B5B6823F4E0627B68DB6813434B6087
:1018BC007B681B6803F00803002B09D01049104B00
:1018CC005B6823F460527B681B69DB0013434B603D
:1018DC0000F01CF801460A4B5B681B0903F00F0370
:1018EC00084AD35C21FA03F3074A13600020FEF781
:1018FC003DFC002318461037BD4680BD0020024039
:10190C0000100240742E00080800002090B48AB029
:10191C0000AF2A4B3C1D0FCB84E80F00284B1B88D3
:10192C003B800023FB610023BB6100237B6200230F
:10193C007B6100233B62234B5B68FB61FB6903F01B
:10194C000C03042B02D0082B03D02DE01E4B3B6262
:10195C002DE0FB699B0C03F00F0307F128021344E5
:10196C0013F8243C7B61FB6903F48033002B13D008
:10197C00144B5B685B0C03F0010307F12802134462
:10198C0013F8283CBB617B690F4A02FB03F2BB696D
:10199C00B2FBF3F37B6204E07B690C4A02FB03F3BA
:1019AC007B627B6A3B6202E0074B3B6200BF3B6A97
:1019BC0018462837BD4690BC704700BF602E000803
:1019CC00702E00080010024000127A0000093D0041
:1019DC0080B485B000AF78600A4B1B680A4AA2FB42
:1019EC0003235B0A7A6802FB03F3FB6000BFFB680E
:1019FC005A1EFA60002BF9D100BF1437BD4680BCCB
:101A0C00704700BF08000020D34D621080B483B033
:101A1C0000AF78607B68022283F83D207B681B68EE
:101A2C007A681268126842F001021A607B6801221F
:101A3C0083F83D20002318460C37BD4680BC704708
:101A4C0080B582B000AF78607B68002B01D1012398
:101A5C001DE07B6893F83D30DBB2002B06D17B6830
:101A6C00002283F83C20786801F092F87B6802220F
:101A7C0083F83D207B681A687B680433194610464E
:101A8C0000F02EFA7B68012283F83D2000231846D3
:101A9C000837BD4680BD000080B582B000AF7860CD
:101AAC0039607B681B6801223968184600F01EFCFF
:101ABC007B681B680B4A934207D17B681B687A686A
:101ACC001268526C42F400425A647B681B687A6854
:101ADC001268126842F001021A6000231846083797
:101AEC00BD4680BD002C014080B582B000AF78604F
:101AFC007B681B681B6903F00203022B22D17B68F5
:101B0C001B68DB6803F00203022B1BD17B681B688C
:101B1C006FF002021A617B6801221A777B681B68DE
:101B2C009B6903F00303002B03D0786800F0BCF929
:101B3C0005E0786800F0AFF9786800F0BEF97B68D2
:101B4C0000221A777B681B681B6903F00403042BC3
:101B5C0022D17B681B68DB6803F00403042B1BD1C8
:101B6C007B681B686FF004021A617B6802221A778B
:101B7C007B681B689B6903F44073002B03D0786867
:101B8C0000F092F905E0786800F085F9786800F0CB
:101B9C0094F97B6800221A777B681B681B6903F039
:101BAC000803082B22D17B681B68DB6803F0080351
:101BBC00082B1BD17B681B686FF008021A617B68CD
:101BCC0004221A777B681B68DB6903F00303002B84
:101BDC0003D0786800F068F905E0786800F05BF9EC
:101BEC00786800F06AF97B6800221A777B681B68BA
:101BFC001B6903F01003102B22D17B681B68DB6878
:101C0C0003F01003102B1BD17B681B686FF01002C4
:101C1C001A617B6808221A777B681B68DB6903F4FE
:101C2C004073002B03D0786800F03EF905E078682B
:101C3C0000F031F9786800F040F97B6800221A77DF
:101C4C007B681B681B6903F00103012B0ED17B68B9
:101C5C001B68DB6803F00103012B07D17B681B6851
:101C6C006FF001021A61786800F00CF97B681B6850
:101C7C001B6903F08003802B0ED17B681B68DB682B
:101C8C0003F08003802B07D17B681B686FF0800208
:101C9C001A61786800F0F1FB7B681B681B6903F024
:101CAC004003402B0ED17B681B68DB6803F04003BC
:101CBC00402B07D17B681B686FF040021A61786873
:101CCC0000F004F97B681B681B6903F02003202BD0
:101CDC000ED17B681B68DB6803F02003202B07D137
:101CEC007B681B686FF020021A61786800F0BCFBFF
:101CFC0000BF0837BD4680BD80B584B000AFF8602A
:101D0C00B9607A60FB6893F83C30012B01D1022357
:101D1C00B4E0FB68012283F83C20FB68022283F8C4
:101D2C003D207B680C2B00F29F8001A252F823F01F
:101D3C00711D0008751E0008751E0008751E000830
:101D4C00B11D0008751E0008751E0008751E0008E0
:101D5C00F31D0008751E0008751E0008751E00088E
:101D6C00331E0008FB681B68B968184600F01EF9A2
:101D7C00FB681B68FA681268926942F008029A6163
:101D8C00FB681B68FA681268926922F004029A6177
:101D9C00FB681B68FA6812689169BA6812690A4391
:101DAC009A6162E0FB681B68B968184600F06AF932
:101DBC00FB681B68FA681268926942F400629A61C7
:101DCC00FB681B68FA681268926922F480629A6157
:101DDC00FB681B68FA6812689169BA68126912028A
:101DEC000A439A6141E0FB681B68B968184600F029
:101DFC00B9F9FB681B68FA681268D26942F00802EC
:101E0C00DA61FB681B68FA681268D26922F0040276
:101E1C00DA61FB681B68FA681268D169BA681269E2
:101E2C000A43DA6121E0FB681B68B968184600F0C8
:101E3C0009FAFB681B68FA681268D26942F40062FE
:101E4C00DA61FB681B68FA681268D26922F4806256
:101E5C00DA61FB681B68FA681268D169BA681269A2
:101E6C0012020A43DA6100E000BFFB68012283F82A
:101E7C003D20FB68002283F83C20002318461037D5
:101E8C00BD4680BD80B483B000AF786000BF0C3716
:101E9C00BD4680BC704780B483B000AF786000BF93
:101EAC000C37BD4680BC704780B483B000AF7860FF
:101EBC0000BF0C37BD4680BC704780B483B000AF08
:101ECC00786000BF0C37BD4680BC704780B483B0CF
:101EDC0000AF786000BF0C37BD4680BC7047000077
:101EEC0080B485B000AF786039600023FB607B68FC
:101EFC001B68FB607B682A4A93420BD07B68B3F16A
:101F0C00804F07D07B68274A934203D07B68264AD0
:101F1C00934208D1FB6823F07003FB603B685B685D
:101F2C00FA681343FB607B681D4A93420BD07B68B5
:101F3C00B3F1804F07D07B681A4A934203D07B6879
:101F4C00194A934208D1FB6823F44073FB603B6849
:101F5C00DB68FA681343FB60FB6823F08003FB60CB
:101F6C003B685B69FA681343FB607B68FA681A602C
:101F7C003B689A687B68DA623B681A687B689A628D
:101F8C007B68074A934203D13B681A697B681A63E2
:101F9C007B6801225A6100BF1437BD4680BC704774
:101FAC00002C0140000400400008004080B487B0C1
:101FBC0000AF786039600023FB6000237B61002355
:101FCC003B617B681B6A23F001027B681A627B68A9
:101FDC001B6A7B617B685B683B617B689B69FB6010
:101FEC00FB6823F07003FB60FB6823F00303FB60CA
:101FFC003B681B68FA681343FB607B6923F00203A0
:10200C007B613B689B687A6913437B617B681C4AE4
:10201C0093420CD17B6923F008037B613B68DB683E
:10202C007A6913437B617B6923F004037B617B68D2
:10203C00134A934211D13B6923F480733B613B6992
:10204C0023F400733B613B685B693A6913433B6162
:10205C003B689B693A6913433B617B683A695A60F8
:10206C007B68FA689A613B685A687B685A637B683C
:10207C007A691A6200BF1C37BD4680BC704700BF2E
:10208C00002C014080B487B000AF78603960002329
:10209C00FB6000237B6100233B617B681B6A23F0A0
:1020AC0010027B681A627B681B6A7B617B685B68C9
:1020BC003B617B689B69FB60FB6823F4E043FB603E
:1020CC00FB6823F44073FB603B681B681B02FA68D7
:1020DC001343FB607B6923F020037B613B689B68A7
:1020EC001B017A6913437B617B681D4A93420DD1B6
:1020FC007B6923F080037B613B68DB681B017A6999
:10210C0013437B617B6923F040037B617B68144A3A
:10211C00934213D13B6923F480633B613B6923F405
:10212C0000633B613B685B699B003A6913433B610D
:10213C003B689B699B003A6913433B617B683A6936
:10214C005A607B68FA689A613B685A687B689A6344
:10215C007B687A691A6200BF1C37BD4680BC704729
:10216C00002C014080B487B000AF78603960002348
:10217C00FB6000237B6100233B617B681B6A23F4BB
:10218C0080727B681A627B681B6A7B617B685B6808
:10219C003B617B68DB69FB60FB6823F07003FB60D1
:1021AC00FB6823F00303FB603B681B68FA6813436E
:1021BC00FB607B6923F400737B613B689B681B02AB
:1021CC007A6913437B617B681D4A93420DD17B690D
:1021DC0023F400637B613B68DB681B027A69134361
:1021EC007B617B6923F480637B617B68144A934237
:1021FC0013D13B6923F480533B613B6923F40053B7
:10220C003B613B685B691B013A6913433B613B686B
:10221C009B691B013A6913433B617B683A695A60BD
:10222C007B68FA68DA613B685A687B68DA637B68BA
:10223C007A691A6200BF1C37BD4680BC704700BF6C
:10224C00002C014080B487B000AF78603960002367
:10225C003B610023FB6000237B617B681B6A23F4DA
:10226C0080527B681A627B681B6AFB607B685B68C8
:10227C007B617B68DB693B613B6923F4E0433B6139
:10228C003B6923F440733B613B681B681B023A6952
:10229C0013433B61FB6823F40053FB603B689B6872
:1022AC001B03FA681343FB607B680F4A934209D106
:1022BC007B6923F480437B613B685B699B017A6992
:1022CC0013437B617B687A695A607B683A69DA618F
:1022DC003B685A687B681A647B68FA681A6200BFAC
:1022EC001C37BD4680BC7047002C014080B487B0C1
:1022FC0000AFF860B9607A6000237B610122BB6893
:10230C0002FA03F37B61FB681A6A7B69DB431A40B0
:10231C00FB681A62FB681A6A7968BB6801FA03F3F6
:10232C001A43FB681A6200BF1C37BD4680BC70475D
:10233C0080B485B000AF786039600023FB607B68A7
:10234C0093F83C30012B01D1022344E07B6801223D
:10235C0083F83C20FB6823F0FF023B68DB681343E7
:10236C00FB60FB6823F440723B689B681343FB6083
:10237C00FB6823F480623B685B681343FB60FB687B
:10238C0023F400623B681B681343FB60FB6823F477
:10239C0080523B681B691343FB60FB6823F40052BB
:1023AC003B685B691343FB60FB6823F480423B682A
:1023BC009B691343FB60FB6823F400423B689B69F9
:1023CC001343FB607B681B68FA685A647B680022C5
:1023DC0083F83C20002318461437BD4680BC704758
:1023EC0080B483B000AF786039607B6893F83C3080
:1023FC00012B01D1022332E07B68012283F83C20BF
:10240C007B68022283F83D207B681B687A6812681F
:10241C00526822F070025A607B681B687A681268F6
:10242C0051683A6812680A435A607B681B687A687C
:10243C001268926822F080029A607B681B687A6846
:10244C00126891683A6852680A439A607B68012264
:10245C0083F83D207B68002283F83C20002318463B
:10246C000C37BD4680BC704780B483B000AF786039
:10247C0000BF0C37BD4680BC704780B483B000AF42
:10248C00786000BF0C37BD4680BC704780B500AF8C
:10249C00184B00221A60FDF753FE00F031F800F0E3
:1024AC000BFA00F08FF900F071F800F0EDF812481B
:1024BC00FFF7ACFA00211048FFF7EEFA04210E48A2
:1024CC00FFF7EAFA08210C48FFF7E6FA0B48FFF78A
:1024DC009DFA00210948FFF7DFFA04210748FFF7AE
:1024EC00DBFA08210548FFF7D7FA0C210348FFF760
:1024FC00D3FAFEE734010020A4000020F4000020F1
:10250C0080B590B000AF07F11803282200211846BF
:10251C0000F08CFC3B1D00221A605A609A60DA6055
:10252C001A610123BB614FF48033FB6100233B62D2
:10253C000123BB6202237B634FF48033BB634FF4F4
:10254C00E013FB6307F118031846FEF76FFE034612
:10255C00002B01D000F08AFA0F237B600223BB60B2
:10256C000023FB604FF480633B6100237B613B1DC8
:10257C0002211846FFF7BEF80346002B01D000F0ED
:10258C0075FA00BF4037BD4680BD000080B58AB0EB
:10259C0000AF3A4B3A4A1A60384B09225A60374B13
:1025AC0000229A60354B0022DA60344B4FF4402203
:1025BC001A61324B4FF480125A61304B00221A765A
:1025CC002E4B00225A762D4B00229A762B4B002252
:1025DC00DA762A4B00221A77284B00225A772748A2
:1025EC00FDF732FE0346002B01D000F03FFA02212A
:1025FC002248FEF742F90346002B01D000F036FAD0
:10260C0000237B610023BB610123FB6100233B6042
:10261C0000237B604FF46043BB600023FB6000230E
:10262C003B6101233B620E237B623B4619461348F8
:10263C00FDF704FF0346002B01D000F017FA114BF5
:10264C0001221A600F4B01225A600E4B0022DA60F5
:10265C000C4B00229A600B4B08221A61094B00228A
:10266C001A750648FDF7B3FF0346002B01D000F0A6
:10267C00FDF900BF2837BD4680BD00BF60000020BB
:10268C00006400402800002080B590B000AF07F136
:10269C00380300221A605A6007F11C0300221A60EA
:1026AC005A609A60DA601A615A619A613B4600225C
:1026BC001A605A609A60DA601A615A619A613F4BEB
:1026CC003F4A1A603D4B0B225A603C4B00229A60E9
:1026DC003A4B4FF49672DA60384B00221A61374B42
:1026EC0000225A61354B00229A613448FFF7A8F951
:1026FC000346002B01D000F0B9F90023BB63002383
:10270C00FB6307F1380319462C48FFF769FE0346B3
:10271C00002B01D000F0AAF96023FB6100233B627F
:10272C0000237B620023BB620023FB6200233B631C
:10273C0000237B6307F11C03002219461F48FFF797
:10274C00DBFA0346002B01D000F090F907F11C03D3
:10275C00042219461948FFF7CFFA0346002B01D083
:10276C0000F084F907F11C03082219461348FFF7FF
:10277C00C3FA0346002B01D000F078F900233B602C
:10278C0000237B600023BB600023FB6000233B61C4
:10279C004FF400537B610023BB613B46194607484D
:1027AC00FFF7C6FD0346002B01D000F05FF903488C
:1027BC0000F026FA00BF4037BD4680BDA4000020C3
:1027CC00002C014080B58AB000AF07F12003002235
:1027DC001A605A603B1D00221A605A609A60DA60D7
:1027EC001A615A619A61334B4FF080421A60314B37
:1027FC0040F21F325A602F4B00229A602D4B4FF43F
:10280C00E162DA602B4B00221A612A4B00229A619A
:10281C002848FFF715F90346002B01D000F026F9E4
:10282C0000233B6200237B6207F1200319462148F9
:10283C00FFF7D6FD0346002B01D000F017F96023FB
:10284C007B600023BB600023FB6000237B613B1D8E
:10285C00002219461748FFF74FFA0346002B01D008
:10286C0000F004F93B1D042219461248FFF744FA04
:10287C000346002B01D000F0F9F83B1D0822194645
:10288C000C48FFF739FA0346002B01D000F0EEF8A4
:10289C003B1D0C2219460748FFF72EFA0346002B66
:1028AC0001D000F0E3F8034800F0AAF900BF283784
:1028BC00BD4680BDF400002080B588B000AF07F1A4
:1028CC00100300221A605A609A60DA60454A454B40
:1028DC009B6943F010039361424B9B6903F0100317
:1028EC00FB60FB683F4A3F4B9B6943F020039361BD
:1028FC003C4B9B6903F02003BB60BB68394A394BE6
:10290C009B6943F004039361364B9B6903F004030A
:10291C007B607B68334A334B9B6943F008039361BC
:10292C00304B9B6903F008033B603B6801224FF47A
:10293C0000512D48FEF74AFC4FF400533B61012334
:10294C007B610023BB610223FB6107F11003194675
:10295C002548FEF7DDFA4FF480533B6101237B6180
:10296C000023BB610223FB6107F1100319461F48CA
:10297C00FEF7CEFA4FF400533B6101237B61002339
:10298C00BB610223FB6107F1100319461748FEF7E0
:10299C00BFFA4FF480433B6101237B610023BB6191
:1029AC000223FB6107F1100319461048FEF7B0FA39
:1029BC004FF480633B610E4B7B610023BB6107F1DD
:1029CC00100319460948FEF7A3FA0022002128201B
:1029DC00FEF767FA2820FEF780FA00BF2037BD46C5
:1029EC0080BD00BF0010024000100140000C0140EF
:1029FC000000111080B582B000AF0346FB80FB884D
:102A0C00B3F5806F11D1FDF7F3FB0246094B1B6840
:102A1C00D31A4EF66022B2FBF3F3074A1360FDF7AC
:102A2C00E7FB0246034B1A6000E000BF00BF08370B
:102A3C00BD4680BDE40000203401002080B582B08A
:102A4C0000AF7860074B084A00217868FDF703FE59
:102A5C000346002B01D000F009F800BF0837BD4633
:102A6C0080BD00BFEC0000204000002080B500AF0E
:102A7C006420FDF7C7FB00BF80BD000080B483B0AD
:102A8C0000AF0E4A0D4B9B6943F0010393610B4B56
:102A9C009B6903F001037B607B68084A074BDB6989
:102AAC0043F08053D361054BDB6903F080533B60EB
:102ABC003B6800BF0C37BD4680BC7047001002401D
:102ACC0080B58AB000AF786007F1140300221A6059
:102ADC005A609A60DA607B681B68294A93424BD132
:102AEC00284A284BDB6943F00073D361254BDB6923
:102AFC0003F000733B613B69224A224B9B6943F014
:102B0C00080393611F4B9B6903F00803FB60FB6890
:102B1C004FF480737B610023BB610023FB6107F1E1
:102B2C00140319461848FEF7F3F94FF400737B6150
:102B3C000223BB6103233B6207F1140319461248BD
:102B4C00FEF7E6F9114B5B687B627B6A23F4C043AA
:102B5C007B627B6A43F0E0637B627B6A43F4804375
:102B6C007B620A4A7B6A5360002200211420FEF724
:102B7C0098F91420FEF7B1F900BF2837BD4680BD87
:102B8C000064004000100240000C014000000140B5
:102B9C0080B584B000AF78607B681B68164A93429E
:102BAC000CD1164A154B9B6943F400639361134B8C
:102BBC009B6903F40063FB60FB6818E07B681B688F
:102BCC00B3F1804F13D10D4A0C4BDB6943F0010379
:102BDC00D3610A4BDB6903F00103BB60BB680022C5
:102BEC0000211C20FEF75DF91C20FEF776F900BFD2
:102BFC001037BD4680BD00BF002C014000100240C4
:102C0C0080B588B000AF786007F1100300221A601D
:102C1C005A609A60DA607B681B681F4A934219D12C
:102C2C001E4A1E4B9B6943F0040393611B4B9B692B
:102C3C0003F00403FB60FB684FF4E0633B61022389
:102C4C007B610223FB6107F1100319461448FEF760
:102C5C005FF91CE07B681B68B3F1804F17D10F4AFA
:102C6C000E4B9B6943F0040393610C4B9B6903F07F
:102C7C000403BB60BB680F233B6102237B6102230F
:102C8C00FB6107F1100319460548FEF741F900BF37
:102C9C002037BD4680BD00BF002C01400010024013
:102CAC000008014080B400AF00BFBD4680BC704737
:102CBC0080B400AFFEE780B400AFFEE780B400AF95
:102CCC00FEE780B400AFFEE780B400AF00BFBD46A6
:102CDC0080BC704780B400AF00BFBD4680BC70475D
:102CEC0080B400AF00BFBD4680BC704780B500AF5C
:102CFC00FDF76CFA00BF80BD80B500AF0248FDF750
:102D0C00E1FD00BF80BD00BF6000002080B500AFBA
:102D1C000248FEF7E9FE00BF80BD00BFF4000020B2
:102D2C0080B500AF4FF48060FEF768FA00BF80BD3D
:102D3C0080B400AF154A154B1B6843F001031360B8
:102D4C001249124B5A68124B13404B600F4A0F4BEF
:102D5C001B6823F0847323F4803313600B4A0B4BF2
:102D6C001B6823F480231360084A084B5B6823F428
:102D7C00FE035360054B4FF41F029A60054B4FF056
:102D8C0000629A6000BFBD4680BC704700100240D4
:102D9C000000FFF800ED00E0002103E00B4B5B5856
:102DAC00435004310A480B4B42189A42F6D30A4A54
:102DBC0002E0002342F8043B084B9A42F9D3FFF798
:102DCC00B7FF00F00FF8FFF761FB70478C2E00087F
:102DDC00000000200C0000200C0000203801002016
:102DEC00FEE7000070B500250C4E0D4CA41BA41082
:102DFC00A54209D100F022F800250A4E0A4CA41B6A
:102E0C00A410A54205D170BD56F825309847013560
:102E1C00EEE756F8253098470135F2E7842E000886
:102E2C00842E0008842E0008882E000803460244D5
:102E3C00934200D1704703F8011BF9E7F8B500BFC6
:102E4C00F8BC08BC9E467047F8B500BFF8BC08BC7F
:042E5C009E467047D7
:102E600002030405060708090A0B0C0D0E0F1010CB
:102E70000102000000000000000000000102030445
:042E80000607080930
:042E84003101000810
:042E88000D01000830
:0C2E8C00100000000100000000A24A0439
:0400000508002DA51D
:00000001FF
