:020000040800F2
:1000000000500020B55B0008795A0008855A0008A6
:100010008B5A0008915A0008975A00080000000007
:100020000000000000000000000000009D5A0008D1
:10003000A95A000800000000B55A0008C15A00087B
:10004000FD5B0008FD5B0008FD5B0008FD5B000830
:10005000FD5B0008FD5B0008FD5B0008FD5B000820
:10006000FD5B0008FD5B0008FD5B0008FD5B000810
:10007000FD5B0008FD5B0008FD5B0008FD5B000800
:10008000FD5B0008FD5B0008FD5B0008FD5B0008F0
:10009000CD5A0008FD5B0008FD5B0008FD5B000811
:1000A000FD5B0008FD5B0008FD5B0008FD5B0008D0
:1000B000E15A0008FD5B0008FD5B0008FD5B0008DD
:1000C000FD5B0008FD5B0008FD5B0008FD5B0008B0
:1000D000FD5B0008FD5B0008FD5B0008FD5B0008A0
:1000E000FD5B0008FD5B0008FD5B000800000000F0
:1000F0000000000000000000000000000000000000
:0C01000000000000000000005FF808F1A3
:10010C0010B5054C237833B9044B13B10448AFF345
:10011C0000800123237010BD780000200000000037
:10012C00BC64000808B5034B1BB103490348AFF38B
:10013C00008008BD000000007C000020BC640008AA
:10014C00034613F8012B002AFBD1181A013870470B
:10015C0080B500AF084A084B1B6843F010031360CE
:10016C00032001F081FB002000F008F805F0FEFAF6
:10017C000023184680BD00BF0020024080B582B02D
:10018C0000AF7860124B1A68124B1B7819464FF46B
:10019C007A73B3FBF1F3B2FBF3F3184601F099FB5E
:1001AC000346002B01D001230EE07B680F2B0AD8ED
:1001BC00002279684FF0FF3001F061FB064A7B6842
:1001CC001360002300E0012318460837BD4680BDAC
:1001DC0010000020040000200000002080B400AFBC
:1001EC00054B1B781A46054B1B681344034A1360D6
:1001FC0000BFBD4680BC7047040000208801002071
:10020C0080B400AF024B1B681846BD4680BC7047DB
:10021C008801002080B584B000AF7860FFF7F0FF54
:10022C00B8607B68FB60FB68B3F1FF3F05D0094BFE
:10023C001B781A46FB681344FB6000BFFFF7E0FF16
:10024C000246BB68D21AFB689A42F7D300BF10373C
:10025C00BD4680BD0400002080B586B000AF78603C
:10026C000023FB7500233B610023BB600023FB6074
:10027C007B68002B01D10123BEE07B689B68002BBF
:10028C007B689B6A002B09D17B680022DA627B6851
:10029C00002283F82420786805F08AFA786800F048
:1002AC00B1FB0346FB757B689B6A03F01003002BC4
:1002BC0040F09980FB7D002B40F095807B689B6A19
:1002CC0023F4885323F0020343F002027B689A6202
:1002DC007B685A687B68DB691A437B68DB685B0068
:1002EC001343BA681343BB607B689B68B3F5807F8C
:1002FC0003D07B689B68012B02D14FF4807300E024
:10030C0000233A6913433B617B685B69012B19D16C
:10031C007B68DB68002B09D17B689B69013B5A0326
:10032C003B69134343F400633B610BE07B689B6ABE
:10033C0043F020027B689A627B68DB6A43F001021F
:10034C007B68DA627B681B687A681268526822F4F0
:10035C0069413A690A435A607B681A687B681B6872
:10036C009968274B0B40B9680B4393607B689B687B
:10037C00B3F5807F03D07B689B68012B04D17B682D
:10038C001B69013B1B05FB607B681B687A68126864
:10039C00D26A22F47001FA680A43DA627B681B683D
:1003AC009A68184B1340BA6893420BD17B680022B1
:1003BC00DA627B689B6A23F0030343F001027B68DB
:1003CC009A6218E07B689B6A23F0120343F01002D8
:1003DC007B689A627B68DB6A43F001027B68DA62B5
:1003EC000123FB7507E07B689B6A43F010027B6876
:1003FC009A620123FB75FB7D18461837BD4680BDFC
:10040C00FDF7E1FFFE0E1FFF80B584B000AF7860F2
:10041C000023FB737B6893F82430012B01D102235A
:10042C0098E07B68012283F82420786800F098FA21
:10043C000346FB73FB7B002B40F087807B689B6A39
:10044C0023F4407323F0010343F480727B689A62B7
:10045C007B681B68414A934205D1414B5B6803F4AE
:10046C007023002B15D17B689B6A23F480127B6868
:10047C009A627B681B685B6803F48063002B26D050
:10048C007B689B6A23F4405343F480527B689A62E6
:10049C001DE07B689B6A43F480127B689A627B68E0
:1004AC001B682F4A934204D07B681B682B4A9342EB
:1004BC000DD12B4B5B6803F48063002B07D07B685A
:1004CC009B6A23F4405343F480527B689A627B68A6
:1004DC009B6A03F48053002B06D07B68DB6A23F005
:1004EC0006027B68DA6202E07B680022DA627B68D3
:1004FC00002283F824207B681B686FF002021A60CC
:10050C007B681B689B6803F46023B3F5602F13D1E1
:10051C007B681B68114A934205D1114B5B6803F44D
:10052C007023002B08D17B681B687A68126892686C
:10053C0042F4A0029A600CE07B681B687A6812682F
:10054C00926842F480129A6003E07B68002283F880
:10055C002420FB7B18461037BD4680BD0028014087
:10056C000024014090B587B000AF7860396000235B
:10057C007B610023FB6000233B61FFF741FE786148
:10058C007B681B689B6803F48073002B0BD07B6823
:10059C009B6A43F020027B689A627B68002283F896
:1005AC0024200123C8E07B681B685B6803F480731C
:1005BC00002B2AD17B681B68DB6A03F47003002BC9
:1005CC0023D11AE03B68B3F1FF3F16D03B68002BF8
:1005DC0007D0FFF715FE02467B69D21A3B689A4298
:1005EC000BD97B689B6A43F004027B689A627B6838
:1005FC00002283F8242003239EE07B681B681B6881
:10060C0003F00203002BDDD06CE04D4B1C68022084
:10061C0001F0E2FF0346B4FBF3F27B681B68196937
:10062C00484B0B40002B18D17B681B68D968464B94
:10063C000B40002B11D17B681B681969434B0B4095
:10064C00002B08D17B681B68D968414B0B40002BF1
:10065C0001D1142320E029231EE07B681B68196953
:10066C003A4B0B40002B06D17B681B68D968384B82
:10067C000B40002B0DD07B681B681969354B0B4068
:10068C00002B08D17B681B68D968324B0B40002BC0
:10069C0001D1542300E0FC2303FB02F33B611DE07A
:1006AC003B68B3F1FF3F16D03B68002B07D0FFF738
:1006BC00A7FD02467B69D21A3B689A420BD97B682C
:1006CC009B6A43F004027B689A627B68002283F881
:1006DC002420032330E0FB680133FB60FA683B699C
:1006EC009A42DDD37B681B686FF012021A607B683C
:1006FC009B6A43F400727B689A627B681B689B68F8
:10070C0003F46023B3F5602F15D17B68DB68002BF5
:10071C0011D17B689B6A23F480727B689A627B6838
:10072C009B6A03F48053002B05D17B689B6A43F0D2
:10073C0001027B689A62002318461C37BD4690BDA7
:10074C00100000202449922424499200922449123A
:10075C00922449004992240080B483B000AF7860A1
:10076C007B681B68DB6C18460C37BD4680BC704739
:10077C0090B484B000AF786039600023FB73002321
:10078C00BB607B6893F82430012B01D10223DCE0A1
:10079C007B68012283F824203B685B68062B1CD8FD
:1007AC007B6819687B681B68586B3B685A681346F2
:1007BC009B001344053B1F2202FA03F3DB43184052
:1007CC003B681C683B685A6813469B001344053B06
:1007DC0004FA03F303434B633CE03B685B680C2B6C
:1007EC001CD87B6819687B681B68186B3B685A6857
:1007FC0013469B001344233B1F2202FA03F3DB43F3
:10080C0018403B681C683B685A6813469B001344AD
:10081C00233B04FA03F303430B631BE07B68196867
:10082C007B681B68D86A3B685A6813469B00134464
:10083C00413B1F2202FA03F3DB4318403B681C6860
:10084C003B685A6813469B001344413B04FA03F37C
:10085C000343CB623B681B68092B1CD97B68196866
:10086C007B681B68D8683B681A6813465B001344A6
:10087C001E3B072202FA03F3DB4318403B689C68DB
:10088C003B681A6813465B0013441E3B04FA03F3DF
:10089C000343CB6019E07B6819687B681B68186997
:1008AC003B681A6813465B001344072202FA03F3F1
:1008BC00DB4318403B689C683B681A6813465B0036
:1008CC00134404FA03F303430B613B681B68102BBE
:1008DC0003D03B681B68112B32D17B681B681D4A07
:1008EC00934225D17B681B689B6803F40003002BA3
:1008FC0026D17B681B687A681268926842F4000201
:10090C009A603B681B68102B1AD1134B1B68134A57
:10091C00A2FB03239A0C13469B0013445B00BB60A1
:10092C0002E0BB68013BBB60BB68002BF9D107E060
:10093C007B689B6A43F020027B689A620123FB73FD
:10094C007B68002283F82420FB7B18461037BD46B9
:10095C0090BC7047002401401000002083DE1B4334
:10096C0080B584B000AF78600023FB600023BB60CF
:10097C007B681B689B6803F00103012B39D07B68F3
:10098C001B687A681268926842F001029A601B4BED
:10099C001B681B4AA2FB03239B0CBB6002E0BB68D9
:1009AC00013BBB60BB68002BF9D1FFF729FCF86059
:1009BC0018E0FFF725FC0246FB68D31A022B11D96D
:1009CC007B689B6A43F010027B689A627B68DB6AE7
:1009DC0043F001027B68DA627B68002283F82420F2
:1009EC00012307E07B681B689B6803F00103012B64
:1009FC00DFD1002318461037BD4680BD1000002003
:100A0C0083DE1B4380B584B000AF78600023FB60AD
:100A1C007B681B689B6803F00103012B27D17B6863
:100A2C001B687A681268926822F001029A60FFF7DC
:100A3C00E7FBF86014E0FFF7E3FB0246FB68D31A10
:100A4C00022B0DD97B689B6A43F010027B689A627B
:100A5C007B68DB6A43F001027B68DA62012307E002
:100A6C007B681B689B6803F00103012BE3D0002318
:100A7C0018461037BD4680BD80B584B000AF786095
:100A8C007B68002B01D10123ECE07B6893F82030CC
:100A9C00DBB2002B02D1786804F0C6FE7B681B68C1
:100AAC007A681268126822F002021A60FFF7A8FB3B
:100ABC00F86012E0FFF7A4FB0246FB68D31A0A2B7E
:100ACC000BD97B685B6A43F400327B685A627B68A3
:100ADC00052283F820200123C4E07B681B685B6837
:100AEC0003F00203002BE5D17B681B687A6812685F
:100AFC00126842F001021A60FFF782FBF86012E004
:100B0C00FFF77EFB0246FB68D31A0A2B0BD97B68D6
:100B1C005B6A43F400327B685A627B68052283F877
:100B2C00202001239EE07B681B685B6803F00103B7
:100B3C00002BE5D07B681B7E012B08D17B681B68E2
:100B4C007A681268126842F080021A6007E07B68CB
:100B5C001B687A681268126822F080021A607B683F
:100B6C005B7E012B08D17B681B687A68126812685F
:100B7C0042F040021A6007E07B681B687A681268D2
:100B8C00126822F040021A607B689B7E012B08D110
:100B9C007B681B687A681268126842F020021A603F
:100BAC0007E07B681B687A681268126822F02002E2
:100BBC001A607B68DB7E012B08D17B681B687A6826
:100BCC001268126822F010021A6007E07B681B683A
:100BDC007A681268126842F010021A607B681B7FF8
:100BEC00012B08D17B681B687A681268126842F086
:100BFC0008021A6007E07B681B687A681268126842
:100C0C0022F008021A607B685B7F012B08D17B689D
:100C1C001B687A681268126842F004021A6007E0D6
:100C2C007B681B687A681268126822F004021A60EA
:100C3C007B681B687A6891687A68D26811437A6815
:100C4C00126911437A68526911437A685268013A01
:100C5C000A43DA617B6800225A627B68012283F8BE
:100C6C002020002318461037BD4680BD80B487B0C5
:100C7C0000AF786039607B681B687B617B6893F898
:100C8C002030FB74FB7C012B03D0FB7C022B40F04F
:100C9C00AA807B69D3F8003243F001027B69C3F868
:100CAC0000223B685B6903F01F03012202FA03F385
:100CBC00FB607B69D3F81C22FB68DB431A407B6921
:100CCC00C3F81C223B68DB69002B23D17B69D3F86A
:100CDC000C22FB68DB431A407B69C3F80C223B688F
:100CEC005A693B68DB6819043B685B689BB2194323
:100CFC007B69483243F832103B685B693A6892680A
:100D0C0011043A68126892B20A4379694833DB00DD
:100D1C000B445A603B68DB69012B22D17B69D3F809
:100D2C000C22FB681A437B69C3F80C223B685A6996
:100D3C003B681B6819043B685B689BB219437B6971
:100D4C00483243F832103B685B693A689268110488
:100D5C003A68D26892B20A4379694833DB000B4493
:100D6C005A603B689B69002B09D17B69D3F804223C
:100D7C00FB68DB431A407B69C3F8042207E07B69FC
:100D8C00D3F80422FB681A437B69C3F804223B683E
:100D9C001B69002B09D17B69D3F81422FB68DB4358
:100DAC001A407B69C3F8142207E07B69D3F814223C
:100DBC00FB681A437B69C3F814223B681B6A012B3E
:100DCC0007D17B69D3F81C22FB681A437B69C3F8F3
:100DDC001C227B69D3F8003223F001027B69C3F833
:100DEC000022002306E07B685B6A43F480227B6868
:100DFC005A62012318461C37BD4680BC704780B52B
:100E0C0084B000AF78607B6893F82030DBB2012BA4
:100E1C002ED17B68022283F820207B681B687A68BD
:100E2C001268126822F001021A60FFF7E9F9F86003
:100E3C0012E0FFF7E5F90246FB68D31A0A2B0BD92F
:100E4C007B685B6A43F400327B685A627B680522DC
:100E5C0083F82020012312E07B681B685B6803F099
:100E6C000103002BE5D17B6800225A62002306E0C7
:100E7C007B685B6A43F400227B685A620123184644
:100E8C001037BD4680BD80B489B000AFF860B96042
:100E9C007A603B60FB6893F82030FB77FB681B683B
:100EAC009B68BB61FB7F012B03D0FB7F022B40F0C7
:100EBC00B480BB6903F08063002B0AD1BB6903F0DB
:100ECC000063002B05D1BB6903F08053002B00F0AD
:100EDC009C80BB691B0E03F003037B617B69022BB7
:100EEC0007D9FB685B6A43F40002FB685A62012372
:100EFC009AE001227B699A403B681A60BB689B6848
:100F0C00002B0DD1FB681968BB681B685A05BB68C0
:100F1C00DB681A437B6918331B010B441A600FE022
:100F2C00FB681968BB685B68DA00BB689B681A438E
:100F3C00BB68DB681A437B6918331B010B441A60CE
:100F4C00FB681968BB681A697B6918331B010B4471
:100F5C0004331A60BB681B7D012B11D1FB68196827
:100F6C00FB681A687B6918331B01134404331B6834
:100F7C0043F480727B6918331B010B4404331A60F1
:100F8C00FB6819687B6807331B781A067B68063385
:100F9C001B781B041A437B6805331B781B02134315
:100FAC007A68043212781A437B691B010B4403F5EF
:100FBC00C6731A60FB6819687B6803331B781A06C2
:100FCC007B6802331B781B041A437B6801331B7844
:100FDC001B0213437A6812781A437B691B010B447A
:100FEC0003F5C4731A60FB681968FB681A687B699F
:100FFC0018331B0113441B6843F001027B6918333F
:10100C001B010B441A6000230EE0FB685B6A43F47F
:10101C000012FB685A62012306E0FB685B6A43F42A
:10102C008022FB685A62012318462437BD4680BCD7
:10103C00704780B487B000AFF860B9607A603B60ED
:10104C00FB6893F82030FB75FB7D012B03D0FB7DF7
:10105C00022B40F0F480BB68002B0ED1FB681B68A0
:10106C00DB6803F00303002B16D1FB685B6A43F4C7
:10107C000012FB685A620123E8E0FB681B681B69DD
:10108C0003F00303002B07D1FB685B6A43F40012E7
:10109C00FB685A620123D9E0FB681A68BB681B33F2
:1010AC001B0113441B6803F004027B689A607B6885
:1010BC009B68002B0CD1FB681A68BB681B331B01A7
:1010CC0013441B685B0DC3F30A027B681A600BE0C8
:1010DC00FB681A68BB681B331B0113441B68DB08D5
:1010EC0023F060427B685A60FB681A68BB681B334C
:1010FC001B0113441B685B0803F001027B68DA6078
:10110C00FB681A68BB681B331B01134404331B6850
:10111C0003F00F027B681A61FB681A68BB681B330B
:10112C001B01134404331B681B0ADAB27B689A61F7
:10113C00FB681A68BB681B331B01134404331B6820
:10114C001B0C9AB27B685A61FB681A68BB681B015E
:10115C00134403F5DC731B68DAB23B681A703B6806
:10116C000133FA681168BA6812010A4402F5DC729C
:10117C001268120AD2B21A703B680233FA6811680C
:10118C00BA6812010A4402F5DC721268120CD2B26F
:10119C001A703B680333FA681168BA6812010A4482
:1011AC0002F5DC721268120ED2B21A703B6804336C
:1011BC00FA681168BA6812010A4402F5DE72126804
:1011CC00D2B21A703B680533FA681168BA6812011A
:1011DC000A4402F5DE721268120AD2B21A703B6827
:1011EC000633FA681168BA6812010A4402F5DE7215
:1011FC001268120CD2B21A703B680733FA68116885
:10120C00BA6812010A4402F5DE721268120ED2B2EA
:10121C001A70BB68002B08D1FB681B68FA6812684F
:10122C00D26842F02002DA6007E0FB681B68FA68BB
:10123C001268126942F020021A61002306E0FB6872
:10124C005B6A43F48022FB685A62012318461C3700
:10125C00BD4680BC704780B485B000AF7860396003
:10126C007B6893F82030FB73FB7B012B02D0FB7B5C
:10127C00022B09D17B681B687A68126851693A683D
:10128C000A435A61002306E07B685B6A43F48022C0
:10129C007B685A62012318461437BD4680BC7047E0
:1012AC0080B58AB000AF786000237B627B681B68D6
:1012BC005B693B627B681B685B68FB617B681B68D6
:1012CC009B68BB617B681B68DB687B617B681B6808
:1012DC001B693B617B681B689B69FB603B6A03F085
:1012EC000103002B7CD0BB6903F00103002B23D03E
:1012FC007B681B6801229A60BB6903F00203002B18
:10130C0003D0786800F07DF916E0BB6903F00403A4
:10131C00002B04D07B6A43F400637B620CE0BB6956
:10132C0003F00803002B04D07B6A43F480537B62E8
:10133C0002E0786800F080F9BB6903F48073002B3D
:10134C0024D07B681B684FF480729A60BB6903F4ED
:10135C000073002B03D0786800F05CF916E0BB69D1
:10136C0003F48063002B04D07B6A43F400537B624C
:10137C000CE0BB6903F40063002B04D07B6A43F4DC
:10138C0080437B6202E0786800F05FF9BB6903F48C
:10139C008033002B24D07B681B684FF480329A601A
:1013AC00BB6903F40033002B03D0786800F03BF9E1
:1013BC0016E0BB6903F48023002B04D07B6A43F452
:1013CC0000437B620CE0BB6903F40023002B04D0C8
:1013DC007B6A43F480337B6202E0786800F03EF96C
:1013EC003B6A03F00803002B0CD07B6903F010035D
:1013FC00002B07D07B6A43F400737B627B681B680D
:10140C001022DA603B6A03F00403002B0BD07B69DB
:10141C0003F00803002B06D07B681B680822DA60F7
:10142C00786800F024F93B6A03F00203002B09D022
:10143C007B681B68DB6803F00303002B02D0786821
:10144C0004F076F93B6A03F04003002B0CD03B69A7
:10145C0003F01003002B07D07B6A43F480637B629C
:10146C007B681B6810221A613B6A03F02003002B77
:10147C000BD03B6903F00803002B06D07B681B687C
:10148C0008221A61786800F004F93B6A03F0100333
:10149C00002B09D07B681B681B6903F00303002B2E
:1014AC0002D0786800F0ECF83B6A03F40033002BB0
:1014BC000BD0FB6903F01003002B06D07B681B6874
:1014CC0010225A60786800F0EDF83B6A03F4803320
:1014DC00002B0BD0FB6903F00803002B06D07B68B4
:1014EC001B6808225A60786800F0E5F83B6A03F440
:1014FC000043002B75D0FB6903F00403002B6CD068
:10150C003B6A03F48073002B08D0FB6803F00103E3
:10151C00002B03D07B6A43F001037B623B6A03F42C
:10152C000073002B08D0FB6803F00203002B03D0E0
:10153C007B6A43F002037B623B6A03F48063002BFB
:10154C0008D0FB6803F00403002B03D07B6A43F044
:10155C0004037B623B6A03F40063002B3DD0FB6801
:10156C0003F07003002B38D0FB6803F07003302BB2
:10157C0017D0302B04D8102B09D0202B0CD024E002
:10158C00502B18D0602B1BD0402B0FD01DE07B6A4A
:10159C0043F008037B6218E07B6A43F010037B6224
:1015AC0013E07B6A43F020037B620EE07B6A43F01E
:1015BC0040037B6209E07B6A43F080037B6204E0BA
:1015CC007B6A43F480737B6200BF7B681B687A681C
:1015DC001268926922F070029A617B681B6804227F
:1015EC005A607B6A002B08D07B685A6A7B6A1A4364
:1015FC007B685A62786800F067F800BF2837BD46F0
:10160C0080BD80B483B000AF786000BF0C37BD469E
:10161C0080BC704780B483B000AF786000BF0C37DB
:10162C00BD4680BC704780B483B000AF786000BF0B
:10163C000C37BD4680BC704780B483B000AF786077
:10164C0000BF0C37BD4680BC704780B483B000AF80
:10165C00786000BF0C37BD4680BC704780B483B047
:10166C0000AF786000BF0C37BD4680BC704780B4BB
:10167C0083B000AF786000BF0C37BD4680BC7047AC
:10168C0080B483B000AF786000BF0C37BD4680BC1F
:10169C00704780B483B000AF786000BF0C37BD4694
:1016AC0080BC704780B483B000AF786000BF0C374B
:1016BC00BD4680BC704780B483B000AF786000BF7B
:1016CC000C37BD4680BC704780B483B000AF7860E7
:1016DC0000BF0C37BD4680BC7047000080B485B09D
:1016EC0000AF78607B6803F00703FB600C4BDB6892
:1016FC00BB60BA684FF6FF031340BB60FB681A026D
:10170C00BB68134343F0BF6343F40033BB60044A2C
:10171C00BB68D36000BF1437BD4680BC704700BFA8
:10172C0000ED00E080B400AF044BDB681B0A03F053
:10173C0007031846BD4680BC704700BF00ED00E0B3
:10174C0080B483B000AF0346FB71084997F90730AA
:10175C005B09FA7902F01F02012000FA02F241F84B
:10176C00232000BF0C37BD4680BC704700E100E071
:10177C0080B483B000AF03463960FB7197F9073032
:10178C00002B0BDA0D49FB7903F00F03043B3A688D
:10179C00D2B21201D2B20B441A7609E0084997F979
:1017AC0007303A68D2B21201D2B20B4483F800234C
:1017BC0000BF0C37BD4680BC704700BF00ED00E099
:1017CC0000E100E080B489B000AFF860B9607A60E5
:1017DC00FB6803F00703FB61FB69C3F10703042BF0
:1017EC0028BF0423BB61FB690433062B02D9FB69B8
:1017FC00033B00E000237B610122BB6902FA03F387
:10180C005A1EBB681A407B699A4001217B6901FA18
:10181C0003F3591E7B680B40134318462437BD460F
:10182C0080BC704780B582B000AF78607B68013BAC
:10183C00B3F1807F01D301230FE00A4A7B68013B9F
:10184C0053600F214FF0FF30FFF792FF054B002242
:10185C009A60044B07221A60002318460837BD46CD
:10186C0080BD00BF10E000E080B582B000AF7860B2
:10187C007868FFF733FF00BF0837BD4680BD80B5E1
:10188C0086B000AF0346B9607A60FB7300237B61BE
:10189C00FFF748FF78617A68B9687869FFF792FFBB
:1018AC00024697F90F3011461846FFF761FF00BF4B
:1018BC001837BD4680BD80B582B000AF0346FB71C2
:1018CC0097F907301846FFF73BFF00BF0837BD46B6
:1018DC0080BD80B582B000AF78607868FFF7A2FF5A
:1018EC00034618460837BD4680BD000080B48BB057
:1018FC0000AF786039600023FB610023BB610023DB
:10190C007B6100233B6200233B6100237B6227E168
:10191C0001227B6A02FA03F3FB613B681A68FB69DC
:10192C001340BB61BA69FB699A4240F016813B686F
:10193C005B68122B34D0122B0DD8022B2BD0022B20
:10194C0004D8002B31D0012B1CD048E0032B43D002
:10195C00112B1BD043E0874A934226D0854A9342F1
:10196C0006D8854A934220D0844A93421DD036E053
:10197C00834A934219D0834A934216D0824A9342A7
:10198C0013D02CE03B68DB683B6228E03B68DB68EB
:10199C0004333B6223E03B68DB6808333B621EE0A8
:1019AC003B68DB680C333B6219E03B689B68002B9F
:1019BC0002D104233B6212E03B689B68012B05D1EA
:1019CC0008233B627B68FA691A6108E008233B62D2
:1019DC007B68FA695A6102E000233B6200BFBB6975
:1019EC00FF2B01D87B6801E07B680433FB60BB698B
:1019FC00FF2B02D87B6A9B0002E07B6A083B9B00B2
:101A0C003B61FB681A680F213B6901FA03F3DB4366
:101A1C001A40396A3B6901FA03F31A43FB681A60EE
:101A2C003B685B6803F08053002B00F09680574AAC
:101A3C00564B9B6943F001039361544B9B6903F034
:101A4C000103BB60BB68524A7B6A9B08023352F8A5
:101A5C0023307B617B6A03F003039B000F2202FAA5
:101A6C0003F3DB437A6913407B617B68494A9342F9
:101A7C0013D07B68484A93420DD07B68474A934207
:101A8C0007D07B68464A934201D1032306E0042326
:101A9C0004E0022302E0012300E000237A6A02F052
:101AAC000302920093407A6913437B6138497B6A45
:101ABC009B0802337A6941F823203B685B6803F486
:101ACC008033002B06D03749364B1A68BB69134359
:101ADC000B6006E03349334B1A68BB69DB43134098
:101AEC000B603B685B6803F40033002B06D02D4978
:101AFC002C4B5A68BB6913434B6006E02949294BB0
:101B0C005A68BB69DB4313404B603B685B6803F46A
:101B1C008013002B06D02349224B9A68BB691343D0
:101B2C008B6006E01F491F4B9A68BB69DB4313406F
:101B3C008B603B685B6803F40013002B06D01949DB
:101B4C00184BDA68BB691343CB6006E01549154B9B
:101B5C00DA68BB69DB431340CB607B6A01337B6281
:101B6C007B6A0F2B7FF6D4AE00BF2C37BD4680BCF2
:101B7C00704700BF0000211000001110000012106F
:101B8C000000311000003210000022100010024042
:101B9C000000014000080140000C01400010014011
:101BAC00001401400004014080B485B000AF78609F
:101BBC000B467B807B689A687B881340002B02D095
:101BCC000123FB7301E00023FB73FB7B18461437E6
:101BDC00BD4680BC704780B483B000AF78600B46C4
:101BEC007B8013467B707B78002B03D07A887B68D4
:101BFC001A6103E07B881A047B681A6100BF0C37FA
:101C0C00BD4680BC704780B483B000AF78600B4693
:101C1C007B807B68DA687B885A407B68DA6000BF1F
:101C2C000C37BD4680BC704780B586B000AF78607D
:101C3C0000233B617B681B6803F00103002B00F061
:101C4C008780924B5B6803F00C03042B0CD08F4BFA
:101C5C005B6803F00C03082B12D18C4B5B6803F40C
:101C6C008033B3F5803F0BD1884B1B6803F40033F2
:101C7C00002B6CD07B685B68002B68D101232DE2B4
:101C8C007B685B68B3F5803F06D1804A7F4B1B684D
:101C9C0043F4803313602EE07B685B68002B0CD11F
:101CAC007A4A7A4B1B6823F480331360774A774B5C
:101CBC001B6823F4802313601DE07B685B68B3F51D
:101CCC00A02F0CD1714A714B1B6843F48023136015
:101CDC006E4A6E4B1B6843F4803313600BE06B4A07
:101CEC006A4B1B6823F480331360684A674B1B688C
:101CFC0023F4802313607B685B68002B13D0FEF702
:101D0C007FFA386108E0FEF77BFA02463B69D31A8A
:101D1C00642B01D90323E1E15C4B1B6803F4003312
:101D2C00002BF0D014E0FEF76BFA386108E0FEF7F8
:101D3C0067FA02463B69D31A642B01D90323CDE120
:101D4C00524B1B6803F40033002BF0D100E000BFB2
:101D5C007B681B6803F00203002B63D04B4B5B6862
:101D6C0003F00C03002B0BD0484B5B6803F00C0307
:101D7C00082B1CD1454B5B6803F48033002B16D128
:101D8C00424B1B6803F00203002B05D07B681B69D8
:101D9C00012B01D00123A1E13C493C4B1B6823F0F2
:101DAC00F8027B685B69DB0013430B603AE07B68ED
:101DBC001B69002B20D0364B01221A60FEF720FA4B
:101DCC00386108E0FEF71CFA02463B69D31A022B75
:101DDC0001D9032382E12D4B1B6803F00203002B76
:101DEC00F0D02A49294B1B6823F0F8027B685B6909
:101DFC00DB0013430B6015E0254B00221A60FEF745
:101E0C00FFF9386108E0FEF7FBF902463B69D31A8B
:101E1C00022B01D9032361E11C4B1B6803F0020365
:101E2C00002BF0D17B681B6803F00803002B39D022
:101E3C007B689B69002B19D0164B01221A60FEF7A8
:101E4C00DFF9386108E0FEF7DBF902463B69D31A8B
:101E5C00022B01D9032341E10C4B5B6A03F0020313
:101E6C00002BF0D0012000F0E3FA1BE0094B00221C
:101E7C001A60FEF7C5F938610EE0FEF7C1F90246AB
:101E8C003B69D31A022B07D9032327E10010024028
:101E9C000000424280044242924B5B6A03F0020310
:101EAC00002BEAD17B681B6803F00403002B00F0C5
:101EBC00A6800023FB758B4BDB6903F08053002B52
:101ECC000DD1884A874BDB6943F08053D361854B36
:101EDC00DB6903F08053FB60FB680123FB75824BCD
:101EEC001B6803F48073002B18D17F4A7E4B1B6850
:101EFC0043F480731360FEF783F9386108E0FEF752
:101F0C007FF902463B69D31A642B01D90323E5E020
:101F1C00754B1B6803F48073002BF0D07B68DB6877
:101F2C00012B06D16F4A6F4B1B6A43F001031362FE
:101F3C002DE07B68DB68002B0CD16A4A694B1B6A6D
:101F4C0023F001031362674A664B1B6A23F00403F8
:101F5C0013621CE07B68DB68052B0CD1614A614B7A
:101F6C001B6A43F0040313625E4A5E4B1B6A43F028
:101F7C00010313620BE05B4A5A4B1B6A23F001030B
:101F8C001362584A574B1B6A23F0040313627B6895
:101F9C00DB68002B15D0FEF733F938610AE0FEF749
:101FAC002FF902463B69D31A41F28832934201D988
:101FBC00032393E04B4B1B6A03F00203002BEED080
:101FCC0014E0FEF71DF938610AE0FEF719F9024634
:101FDC003B69D31A41F28832934201D903237DE045
:101FEC00404B1B6A03F00203002BEED1FB7D012B4F
:101FFC0005D13C4A3B4BDB6923F08053D3617B68B2
:10200C00DB69002B69D0374B5B6803F00C03082BA2
:10201C0061D07B68DB69022B46D1344B00221A60FD
:10202C00FEF7EEF8386108E0FEF7EAF802463B6985
:10203C00D31A022B01D9032350E02A4B1B6803F05F
:10204C000073002BF0D17B681B6AB3F5803F08D17D
:10205C002449244B5B6823F400327B689B68134350
:10206C004B6020481F4B5B6823F474127B68196A21
:10207C007B685B6A0B43134343601C4B01221A6061
:10208C00FEF7BEF8386108E0FEF7BAF802463B6985
:10209C00D31A022B01D9032320E0124B1B6803F047
:1020AC000073002BF0D018E0104B00221A60FEF7E2
:1020BC00A7F8386108E0FEF7A3F802463B69D31A8B
:1020CC00022B01D9032309E0064B1B6803F00073B4
:1020DC00002BF0D101E0012300E000231846183753
:1020EC00BD4680BD001002400070004060004242BE
:1020FC0080B584B000AF786039600023FB607E4B04
:10210C001B6803F007023B689A4210D27A497A4B5B
:10211C001B6823F007023B6813430B60764B1B686C
:10212C0003F007023B689A4201D00123E0E07B6890
:10213C001B6803F00203002B20D07B681B6803F0A4
:10214C000403002B05D06D4A6C4B5B6843F4E063D1
:10215C0053607B681B6803F00803002B05D0674AAB
:10216C00664B5B6843F4605353606449634B5B6834
:10217C0023F0F0027B689B6813434B607B681B6801
:10218C0003F00103002B6AD07B685B68012B07D13D
:10219C005A4B1B6803F40033002B15D10123A7E025
:1021AC007B685B68022B07D1544B1B6803F00073F0
:1021BC00002B09D101239BE0504B1B6803F0020359
:1021CC00002B01D1012393E04C494C4B5B6823F06D
:1021DC0003027B685B6813434B60FEF711F8F860F1
:1021EC007B685B68012B12D10AE0FEF709F8024606
:1021FC00FB68D31A41F28832934201D9032377E06A
:10220C003E4B5B6803F00C03042BEED127E07B689C
:10221C005B68022B1DD10AE0FDF7F2FF0246FB685A
:10222C00D31A41F28832934201D9032360E0334B35
:10223C005B6803F00C03082BEED110E0FDF7E0FF18
:10224C000246FB68D31A41F28832934201D9032328
:10225C004EE02A4B5B6803F00C03002BEED1264BAF
:10226C001B6803F007023B689A4210D92249224BA3
:10227C001B6823F007023B6813430B601E4B1B6863
:10228C0003F007023B689A4201D0012330E07B68DF
:10229C001B6803F00403002B08D01849174B5B682C
:1022AC0023F4E0627B68DB6813434B607B681B683C
:1022BC0003F00803002B09D01049104B5B6823F482
:1022CC0060527B681B69DB0013434B6000F01CF809
:1022DC0001460A4B5B681B0903F00F03084AD35CE9
:1022EC0021FA03F3074A13600020FDF747FF002390
:1022FC0018461037BD4680BD002002400010024039
:10230C00506A00081000002090B48AB000AF2A4B2D
:10231C003C1D0FCB84E80F00284B1B883B8000230F
:10232C00FB610023BB6100237B6200237B610023E4
:10233C003B62234B5B68FB61FB6903F00C03042BD2
:10234C0002D0082B03D02DE01E4B3B622DE0FB6925
:10235C009B0C03F00F0307F12802134413F8243CE1
:10236C007B61FB6903F48033002B13D0144B5B6847
:10237C005B0C03F0010307F12802134413F8283C0B
:10238C00BB617B690F4A02FB03F2BB69B2FBF3F33F
:10239C007B6204E07B690C4A02FB03F37B627B6A81
:1023AC003B6202E0074B3B6200BF3B6A1846283792
:1023BC00BD4690BC704700BFD4640008E4640008BC
:1023CC000010024000127A0000093D0080B400AFFA
:1023DC00024B1B681846BD4680BC7047100000209D
:1023EC0080B500AFFFF7F2FF0146054B5B681B0A97
:1023FC0003F00703034AD35C21FA03F3184680BDAC
:10240C0000100240606A000880B500AFFFF7DEFFE5
:10241C000146054B5B68DB0A03F00703034AD35CF8
:10242C0021FA03F3184680BD00100240606A0008D0
:10243C0080B485B000AF78600A4B1B680A4AA2FBD7
:10244C0003235B0A7A6802FB03F3FB6000BFFB68A3
:10245C005A1EFA60002BF9D100BF1437BD4680BC60
:10246C00704700BF10000020D34D621080B586B0BD
:10247C0000AF786000233B610023FB607B681B6826
:10248C0003F00103002B7DD00023FB754F4BDB6960
:10249C0003F08053002B0DD14C4A4C4BDB6943F0BD
:1024AC008053D361494BDB6903F08053BB60BB683D
:1024BC000123FB75464B1B6803F48073002B18D16A
:1024CC00434A434B1B6843F480731360FDF798FE3B
:1024DC00386108E0FDF794FE02463B69D31A642B81
:1024EC0001D903236DE03A4B1B6803F48073002B76
:1024FC00F0D0364B1B6A03F44073FB60FB68002B77
:10250C002ED07B685B6803F44072FB689A4227D03C
:10251C002E4B1B6A23F44073FB602E4B01221A6076
:10252C002C4B00221A60294AFB681362FB6803F0EB
:10253C000103002B14D0FDF763FE38610AE0FDF7B0
:10254C005FFE02463B69D31A41F28832934201D9AD
:10255C00032336E01D4B1B6A03F00203002BEED065
:10256C001A491A4B1B6A23F440727B685B6813434D
:10257C000B62FB7D012B05D1144A144BDB6923F054
:10258C008053D3617B681B6803F00203002B08D0D7
:10259C000E490E4B5B6823F440427B689B681343E7
:1025AC004B607B681B6803F01003002B08D00749B5
:1025BC00064B5B6823F480027B68DB6813434B603B
:1025CC00002318461837BD4680BD00BF00100240DE
:1025DC00007000404004424290B58DB000AF78606E
:1025EC00574B07F10C040FCB84E80F00554B1B889D
:1025FC003B8100237B620023FB6200233B620023B0
:10260C00FB610023BB627B68022B00F08480102BE3
:10261C0002D0012B49D08DE04B4B5B68FB614A4BE0
:10262C001B6803F08073002B00F08380FB699B0C0C
:10263C0003F00F0307F13002134413F8243C3B6200
:10264C00FB6903F48033002B18D03F4B5B685B0CA9
:10265C0003F0010307F13002134413F8283C7B62AA
:10266C00FB6903F48033002B0DD0384A7B6AB2FB34
:10267C00F3F33A6A02FB03F3FB6204E03B6A344A6D
:10268C0002FB03F3FB62304B5B6803F48003B3F58E
:10269C00800F02D1FB6ABB624BE0FB6A5B002D4AE8
:1026AC00A2FB03235B08BB6243E0274B1B6AFB6165
:1026BC00FB6903F44073B3F5807F08D1FB6903F029
:1026CC000203002B03D04FF40043BB6222E0FB69F2
:1026DC0003F44073B3F5007F09D11B4B5B6A03F025
:1026EC000203002B03D049F64043BB6212E0FB69A6
:1026FC0003F44073B3F5407F09D1134B1B6803F40B
:10270C000033002B03D04FF22443BB6202E00023C2
:10271C00BB620FE00EE0FFF777FE02460A4B5B68E8
:10272C009B0B03F0030301335B00B2FBF3F3BB62BF
:10273C0000E000BFBB6A18463437BD4690BD00BFF1
:10274C00E8640008F86400080010024000127A00E7
:10275C0000093D00ABAAAAAA80B58AB002AFF86006
:10276C00B9603B601346FB800023BB610023FB7701
:10277C00FB6893F85030012B01D1022323E1FB6855
:10278C00012283F85020FDF73BFDB861FB6893F8FC
:10279C005130DBB2012B02D00223FB770AE1BB687C
:1027AC00002B02D0FB88002B02D10123FB7701E127
:1027BC00FB68032283F85120FB6800225A65FB68F2
:1027CC00BA681A63FB68FA889A86FB68FA88DA8614
:1027DC00FB6800229A63FB6800229A87FB68002240
:1027EC00DA87FB6800225A64FB6800221A64FB68D3
:1027FC009B68B3F5004F07D1FB681B68FA68126839
:10280C00126842F480421A60FB681B681B6803F074
:10281C004003402B07D0FB681B68FA6812681268EB
:10282C0042F040021A60FB68DB68B3F5006F47D1D9
:10283C00FB685B68002B04D0FB68DB8E9BB2012B22
:10284C0038D1FB681B68BA681288DA60BB6802333F
:10285C00BB60FB68DB8E9BB2013B9AB2FB68DA86ED
:10286C0028E0FB681B689B6803F00203022B0FD166
:10287C00FB681B68BA681288DA60BB680233BB60FD
:10288C00FB68DB8E9BB2013B9AB2FB68DA8611E0E7
:10289C003B68002B0BD03B68B3F1FF3F0AD0FDF730
:1028AC00AFFC0246BB69D21A3B689A4202D303239F
:1028BC00FB777FE0FB68DB8E9BB2002BD1D148E02D
:1028CC00FB685B68002B04D0FB68DB8E9BB2012B92
:1028DC003AD1FB681B680C33BA6812781A70BB6863
:1028EC000133BB60FB68DB8E9BB2013B9AB2FB6889
:1028FC00DA8629E0FB681B689B6803F00203022B55
:10290C0010D1FB681B680C33BA6812781A70BB685C
:10291C000133BB60FB68DB8E9BB2013B9AB2FB6858
:10292C00DA8611E03B68002B0BD03B68B3F1FF3F1C
:10293C000AD0FDF765FC0246BB69D21A3B689A4285
:10294C0002D30323FB7735E0FB68DB8E9BB2002BB5
:10295C00D0D1BB6900933B6801220221F86800F0DA
:10296C00E3FA0346002B02D00323FB7722E0BA697B
:10297C003968F86800F041FB0346002B05D00123B1
:10298C00FB77FB6820225A6514E0FB689B68002BE0
:10299C000AD100237B61FB681B68DB687B61FB68E9
:1029AC001B689B687B617B69FB685B6D002B01D0AE
:1029BC000123FB77FB68012283F85120FB6800227E
:1029CC0083F85020FB7F18462037BD4680BD80B56C
:1029DC0088B002AFF860B9603B601346FB800023FF
:1029EC003B610023FB75FB685B68B3F5827F12D1FA
:1029FC00FB689B68002B0ED1FB68042283F85120E6
:102A0C00FA883B6800931346BA68B968F86800F016
:102A1C00ECF80346E5E0FB6893F85030012B01D14C
:102A2C000223DEE0FB68012283F85020FDF7E8FB6F
:102A3C003861FB6893F85130DBB2012B02D00223D2
:102A4C00FB75C5E0BB68002B02D0FB88002B02D1C4
:102A5C000123FB75BCE0FB68042283F85120FB6862
:102A6C0000225A65FB68BA689A63FB68FA889A87F1
:102A7C00FB68FA88DA87FB6800221A63FB6800227D
:102A8C009A86FB680022DA86FB6800221A64FB68CF
:102A9C0000225A64FB689B68B3F5004F07D1FB68B2
:102AAC001B68FA681268126822F480421A60FB688C
:102ABC001B681B6803F04003402B07D0FB681B68A6
:102ACC00FA681268126842F040021A60FB68DB6810
:102ADC00002B5BD12AE0FB681B689B6803F00103A9
:102AEC00012B11D1FB681B680C331B78DAB2BB6865
:102AFC001A70BB680133BB60FB68DB8F9BB2013B78
:102B0C009AB2FB68DA8711E03B68002B0BD03B686C
:102B1C00B3F1FF3F0AD0FDF773FB02463B69D21AB3
:102B2C003B689A4202D30323FB7551E0FB68DB8FB1
:102B3C009BB2002BCFD12EE0FB681B689B6803F087
:102B4C000103012B10D1FB681B68DB689AB2BB68D0
:102B5C001A80BB680233BB60FB68DB8F9BB2013B06
:102B6C009AB2FB68DA8711E03B68002B0BD03B680C
:102B7C00B3F1FF3F0AD0FDF743FB02463B69D21A83
:102B8C003B689A4202D30323FB7521E0FB68DB8F81
:102B9C009BB2002BD0D1FB685B68B3F5827F11D15F
:102BAC00FB689B68B3F5004F04D0FB689B68B3F5DA
:102BBC00806F07D1FB681B68FA681268126822F0F4
:102BCC0040021A60FB685B6D002B01D00123FB7582
:102BDC00FB68012283F85120FB68002283F8502007
:102BEC00FB7D18461837BD4680BD80B58CB002AF52
:102BFC00F860B9607A607B800023FB610023BB61C5
:102C0C0000237B6101237B62002387F82330FB6860
:102C1C0093F85030012B01D1022381E1FB68012292
:102C2C0083F85020FDF7ECFA7861FB6893F851308B
:102C3C00DBB2FB61FB685B68BB61FB69012B0ED0EF
:102C4C00BB69B3F5827F06D1FB689B68002B02D170
:102C5C00FB69042B03D0022387F8233056E1BB68B1
:102C6C00002B05D07B68002B02D07B88002B03D176
:102C7C00012387F8233049E1FB6893F85130DBB22C
:102C8C00012B03D1FB68052283F85120FB6800223D
:102C9C005A65FB687A689A63FB687A88DA87FB68FE
:102CAC007A889A87FB68BA681A63FB687A88DA862E
:102CBC00FB687A889A86FB6800221A64FB680022FB
:102CCC005A64FB681B681B6803F04003402B07D059
:102CDC00FB681B68FA681268126842F040021A60BE
:102CEC00FB68DB68B3F5006F71D1FB685B68002B88
:102CFC0004D0FB68DB8E9BB2012B5DD1FB681B689B
:102D0C00BA681288DA60BB680233BB60FB68DB8E82
:102D1C009BB2013B9AB2FB68DA864DE07B6A002BD2
:102D2C001CD0FB68DB8E9BB2002B17D0FB681B689A
:102D3C009B6803F00203022B10D1FB681B68BA6876
:102D4C001288DA60BB680233BB60FB68DB8E9BB217
:102D5C00013B9AB2FB68DA8600237B62FB68DB8F4F
:102D6C009BB2002B18D0FB681B689B6803F0010317
:102D7C00012B11D1FB681B68DB689AB27B681A8047
:102D8C007B6802337B60FB68DB8F9BB2013B9AB2A2
:102D9C00FB68DA8701237B623B6BB3F1FF3F0BD0FF
:102DAC00FDF72EFA02467B69D21A3B6B9A4203D38B
:102DBC00032387F82330A9E0FB68DB8E9BB2002B42
:102DCC00ACD1FB68DB8F9BB2002BA7D171E0FB6809
:102DDC005B68002B04D0FB68DB8E9BB2012B5ED1B1
:102DEC00FB681B680C33BA6812781A70BB68013325
:102DFC00BB60FB68DB8E9BB2013B9AB2FB68DA8648
:102E0C004DE07B6A002B1DD0FB68DB8E9BB2002B48
:102E1C0018D0FB681B689B6803F00203022B11D1CE
:102E2C00FB681B6803F10C02BB68591CB9601B786A
:102E3C001370FB68DB8E9BB2013B9AB2FB68DA869F
:102E4C0000237B62FB68DB8F9BB2002B17D0FB68E7
:102E5C001B689B6803F00103012B10D17B685A1C83
:102E6C007A60FA681268D268D2B21A70FB68DB8F8B
:102E7C009BB2013B9AB2FB68DA8701237B623B6B06
:102E8C00B3F1FF3F0BD0FDF7BBF902467B69D21AB9
:102E9C003B6B9A4203D3032387F8233036E0FB685D
:102EAC00DB8E9BB2002BACD1FB68DB8F9BB2002B73
:102EBC00A7D17B6900933B6B01220221F86800F0DB
:102ECC0033F80346002B03D0032387F823301DE08F
:102EDC007A69396BF86800F090F80346002B06D03D
:102EEC00012387F82330FB6820225A650EE0FB682B
:102EFC009B68002B0AD100233B61FB681B68DB68D5
:102F0C003B61FB681B689B683B613B69FB6801226A
:102F1C0083F85120FB68002283F8502097F8233067
:102F2C0018462837BD4680BD80B584B000AFF86028
:102F3C00B9607A603B604DE03B68B3F1FF3F49D02C
:102F4C003B68002B07D0FDF75BF90246BB69D21A30
:102F5C003B689A423ED3FB681B68FA681268526859
:102F6C0022F0E0025A60FB685B68B3F5827F11D1F6
:102F7C00FB689B68B3F5004F04D0FB689B68B3F506
:102F8C00806F07D1FB681B68FA681268126822F020
:102F9C0040021A60FB689B6AB3F5005F10D1FB68B6
:102FAC001A68FB681B6819684DF6FF730B401360B9
:102FBC00FB681B68FA681268126842F400521A60C7
:102FCC00FB68012283F85120FB68002283F8502013
:102FDC0003230EE0FB681B689A68BB681A40BB6849
:102FEC009A4201D1012200E000227B689A42A3D1CF
:102FFC00002318461037BD4680BD80B586B002AFA1
:10300C00F860B9607A607B680093BB68002280210D
:10301C00F868FFF789FF0346002B07D0FB685B6D50
:10302C0043F02002FB685A65032300E00023184696
:10303C001037BD4680BD80B582B000AF78607B682C
:10304C00002B01D1012356E07B6800229A627B6839
:10305C0093F85130DBB2002B02D1786802F04CFCB3
:10306C007B68022283F851207B681B687A6812689F
:10307C00126822F040021A607B681B687A685168FB
:10308C007A68926811437A68D26811437A68126937
:10309C0011437A68526911437A68926902F400729A
:1030AC0011437A68D26911437A68126A11437A68BB
:1030BC00926A0A431A607B681B687A689269120CE0
:1030CC0002F004017A68526A0A435A607B681B68F2
:1030DC007A68D26A1A617B681B687A681268D2694E
:1030EC0022F40062DA617B6800225A657B68012257
:1030FC0083F85120002318460837BD4680BD80B5A3
:10310C0082B000AF78607B68002B01D101231DE0F9
:10311C007B6893F83D30DBB2002B06D17B68002234
:10312C0083F83C20786802F031FC7B68022283F83B
:10313C003D207B681A687B6804331946104600F002
:10314C002BFA7B68012283F83D20002318460837B0
:10315C00BD4680BD80B483B000AF78607B681B68CF
:10316C007A681268D26842F00102DA607B681B68E8
:10317C007A681268126842F001021A60002318463D
:10318C000C37BD4680BC704780B582B000AF78600C
:10319C007B681B681B6903F00203022B22D17B683E
:1031AC001B68DB6803F00203022B1BD17B681B68D6
:1031BC006FF002021A617B6801221A777B681B6828
:1031CC009B6903F00303002B03D0786800F0C8F967
:1031DC0005E0786800F0BBF9786800F0CAF97B6804
:1031EC0000221A777B681B681B6903F00403042B0D
:1031FC0022D17B681B68DB6803F00403042B1BD112
:10320C007B681B686FF004021A617B6802221A77D4
:10321C007B681B689B6903F44073002B03D07868B0
:10322C0000F09EF905E0786800F091F9786800F0FC
:10323C00A0F97B6800221A777B681B681B6903F076
:10324C000803082B22D17B681B68DB6803F008039A
:10325C00082B1BD17B681B686FF008021A617B6816
:10326C0004221A777B681B68DB6903F00303002BCD
:10327C0003D0786800F074F905E0786800F067F91D
:10328C00786800F076F97B6800221A777B681B68F7
:10329C001B6903F01003102B22D17B681B68DB68C1
:1032AC0003F01003102B1BD17B681B686FF010020E
:1032BC001A617B6808221A777B681B68DB6903F448
:1032CC004073002B03D0786800F04AF905E0786869
:1032DC0000F03DF9786800F04CF97B6800221A7711
:1032EC007B681B681B6903F00103012B0ED17B6803
:1032FC001B68DB6803F00103012B07D17B681B689B
:10330C006FF001021A61786802F0D0F97B681B68D3
:10331C001B6903F08003802B0ED17B681B68DB6874
:10332C0003F08003802B07D17B681B686FF0800251
:10333C001A61786800F088FA7B681B681B6903F0D7
:10334C004003402B0ED17B681B68DB6803F0400305
:10335C00402B07D17B681B686FF040021A617868BC
:10336C0000F010F97B681B681B6903F02003202B0D
:10337C000ED17B681B68DB6803F02003202B07D180
:10338C007B681B686FF020021A61786800F053FAB2
:10339C0000BF0837BD4680BD80B584B000AF7860F3
:1033AC0039600023FB607B6893F83C30012B01D122
:1033BC000223C8E07B68012283F83C207B68022250
:1033CC0083F83D207B681B689B68FB60FB6823F0DF
:1033DC007703FB60FB6823F47F43FB607B681B680F
:1033EC00FA689A603B681B68402B77D0402B0ED84C
:1033FC00102B00F08A80102B02D8002B7ED099E085
:10340C00202B00F08980302B00F08D8092E0702B07
:10341C0016D0702B04D8502B40D0602B4ED089E0A6
:10342C00B3F5805F03D0B3F5005F24D082E07B68F6
:10343C001B687A681268926822F007029A6079E039
:10344C007B6818683B6899683B685A683B68DB681E
:10345C0000F08CF97B681B689B68FB60FB6823F0B1
:10346C007703FB60FB6843F07703FB607B681B68AA
:10347C00FA689A605EE07B6818683B6899683B68FC
:10348C005A683B68DB6800F071F97B681B687A68E6
:10349C001268926842F480429A604BE07B6818682C
:1034AC003B6859683B68DB681A4600F0DBF87B68C0
:1034BC001B685021184600F03AF93BE07B6818680D
:1034CC003B6859683B68DB681A4600F0FDF87B687E
:1034DC001B686021184600F02AF92BE07B681868FD
:1034EC003B6859683B68DB681A4600F0BBF87B68A0
:1034FC001B684021184600F01AF91BE07B681B681A
:10350C000021184600F013F914E07B681B681021A9
:10351C00184600F00CF90DE07B681B68202118465A
:10352C0000F005F906E07B681B683021184600F0B6
:10353C00FEF800BF7B68012283F83D207B680022E7
:10354C0083F83C20002318461037BD4680BD80B45C
:10355C0083B000AF786000BF0C37BD4680BC7047AD
:10356C0080B483B000AF786000BF0C37BD4680BC20
:10357C00704780B483B000AF786000BF0C37BD4695
:10358C0080BC704780B483B000AF786000BF0C374C
:10359C00BD4680BC7047000080B485B000AF786039
:1035AC0039600023FB607B681B68FB607B682A4AE0
:1035BC0093420BD07B68B3F1804F07D07B68274ACE
:1035CC00934203D07B68264A934208D1FB6823F0D0
:1035DC007003FB603B685B68FA681343FB607B68B5
:1035EC001D4A93420BD07B68B3F1804F07D07B68A8
:1035FC001A4A934203D07B68194A934208D1FB685C
:10360C0023F44073FB603B68DB68FA681343FB6090
:10361C00FB6823F08003FB603B685B69FA6813432B
:10362C00FB607B68FA681A603B689A687B68DA62B0
:10363C003B681A687B689A627B68074A934203D19D
:10364C003B681A697B681A637B6801225A6100BF68
:10365C001437BD4680BC7047002C0140000400406C
:10366C000008004080B487B000AFF860B9607A60A1
:10367C0000237B6100233B61FB681B6A3B61FB6899
:10368C001B6A23F00102FB681A62FB689B697B6171
:10369C007B6923F0F0037B617B681B017A69134320
:1036AC007B613B6923F00A033B613A69BB681343B6
:1036BC003B61FB687A699A61FB683A691A6200BFE0
:1036CC001C37BD4680BC704780B487B000AFF86033
:1036DC00B9607A6000237B6100233B61FB681B6A45
:1036EC0023F01002FB681A62FB689B697B61FB6824
:1036FC001B6A3B617B6923F470437B617B681B0312
:10370C007A6913437B613B6923F0A0033B61BB687F
:10371C001B013A6913433B61FB687A699A61FB6848
:10372C003A691A6200BF1C37BD4680BC704780B432
:10373C0085B000AF78600B467B800023FB607B6814
:10374C009B68FB60FB6823F07003FB607B8843F095
:10375C0007039BB21A46FB681343FB607B68FA684D
:10376C009A6000BF1437BD4680BC704780B487B0E8
:10377C0000AFF860B9607A603B6000237B61FB6846
:10378C009B687B617B6923F47F437B613B681A02F6
:10379C007B681A43BB6813437A6913437B61FB68EC
:1037AC007A699A6000BF1C37BD4680BC704780B4F4
:1037BC0083B000AF786039607B6893F83C30012BA4
:1037CC0001D1022332E07B68012283F83C207B6824
:1037DC00022283F83D207B681B687A681268526865
:1037EC0022F070025A607B681B687A681268516814
:1037FC003A6812680A435A607B681B687A681268D8
:10380C00926822F080029A607B681B687A68126862
:10381C0091683A6852680A439A607B68012283F87F
:10382C003D207B68002283F83C20002318460C378F
:10383C00BD4680BC704780B483B000AF786000BFD9
:10384C000C37BD4680BC704780B483B000AF786045
:10385C0000BF0C37BD4680BC704780B582B000AF4E
:10386C0078607B68002B01D101233FE07B6893F8E3
:10387C003930DBB2002B06D17B68002283F838206C
:10388C00786802F0A7F87B68242283F839207B68DB
:10389C001B687A681268D26822F40052DA60786881
:1038AC0000F00AF97B681B687A681268126922F4C6
:1038BC0090421A617B681B687A681268526922F020
:1038CC002A025A617B681B687A681268D26842F4D3
:1038DC000052DA607B680022DA637B68202283F86E
:1038EC0039207B68202283F83A20002318460837B9
:1038FC00BD4680BD80B588B002AFF860B9603B6052
:10390C001346FB8000237B61FB6893F83930DBB2F4
:10391C00202B40F08280BB68002B02D0FB88002B50
:10392C0001D101237AE0FB6893F83830012B01D1E7
:10393C00022373E0FB68012283F83820FB68002225
:10394C00DA63FB68212283F83920FCF759FC786193
:10395C00FB68FA889A84FB68FA88DA8441E0FB6891
:10396C00DB8C9BB2013B9AB2FB68DA84FB689B68E8
:10397C00B3F5805F21D13B6800937B6900228021E5
:10398C00F86800F04FF80346002B01D0032345E004
:10399C00BB683B61FB681B683A691288C2F308027A
:1039AC005A60FB681B69002B03D1BB680233BB60F8
:1039BC0017E0BB680133BB6013E03B6800937B6985
:1039CC0000228021F86800F02DF80346002B01D06E
:1039DC00032323E0FB681A68BB68591CB9601B7889
:1039EC005360FB68DB8C9BB2002BB8D13B68009317
:1039FC007B6900224021F86800F014F80346002B84
:103A0C0001D003230AE0FB68202283F83920FB68ED
:103A1C00002283F83820002300E0022318461837D0
:103A2C00BD4680BD80B584B000AFF860B9603B6026
:103A3C001346FB712CE0BB69B3F1FF3F28D0BB6987
:103A4C00002B07D0FCF7DCFB02463B68D21ABB69A3
:103A5C009A421DD9FB681B68FA681268D26822F476
:103A6C00D072DA60FB681B68FA681268526922F03F
:103A7C0001025A61FB68202283F83920FB6820225E
:103A8C0083F83A20FB68002283F8382003230FE0E8
:103A9C00FB681B681A68BB681A40BB689A420CBF6B
:103AAC0001230023DBB21A46FB799A42C3D00023D0
:103ABC0018461037BD4680BDF0B585B000AF7860B4
:103ACC000023FB607B681B687A681268126922F419
:103ADC0040517A68D2680A431A617B689A687B689D
:103AEC001B691A437B685B691343FA681343FB60D9
:103AFC007B681A687B681B68DB6823F4B05323F07F
:103B0C000C03F9680B43D3607B681B687A681268F6
:103B1C00526922F440717A6892690A435A617B684F
:103B2C001B686F4A93426BD17B681C68FEF76CFC78
:103B3C00024613469B0013449A001A447B685B6848
:103B4C009B00B2FBF3F3674AA2FB03235B091D0145
:103B5C00FEF75AFC024613469B0013449A001A4483
:103B6C007B685B689B00B2FBF3F6FEF74DFC0246EC
:103B7C0013469B0013449A001A447B685B689B00B5
:103B8C00B2FBF3F3574AA2FB03235B09642202FB4B
:103B9C0003F3F31A1B013233524AA2FB03235B09D2
:103BAC0003F0F0031D44FEF72FFC024613469B0066
:103BBC0013449A001A447B685B689B00B2FBF3F6D3
:103BCC00FEF722FC024613469B0013449A001A444B
:103BDC007B685B689B00B2FBF3F3424AA2FB0323B6
:103BEC005B09642202FB03F3F31A1B0132333D4AD7
:103BFC00A2FB03235B0903F00F032B44A3606AE0D1
:103C0C007B681C68FEF7ECFB024613469B001344D2
:103C1C009A001A447B685B689B00B2FBF3F3314A51
:103C2C00A2FB03235B091D01FEF7DAFB02461346D8
:103C3C009B0013449A001A447B685B689B00B2FBA0
:103C4C00F3F6FEF7CDFB024613469B0013449A0095
:103C5C001A447B685B689B00B2FBF3F3214AA2FB1E
:103C6C0003235B09642202FB03F3F31A1B013233B7
:103C7C001C4AA2FB03235B0903F0F0031D44FEF76F
:103C8C00AFFB024613469B0013449A001A447B6810
:103C9C005B689B00B2FBF3F6FEF7A2FB02461346F1
:103CAC009B0013449A001A447B685B689B00B2FB30
:103CBC00F3F30C4AA2FB03235B09642202FB03F31C
:103CCC00F31A1B013233074AA2FB03235B0903F0EF
:103CDC000F032B44A36000BF1437BD46F0BD00BFDB
:103CEC00003801401F85EB5180B485B000AF78607F
:103CFC007B68FB600A4B1B680A4AA2FB03239A0CE5
:103D0C00FB6802FB03F3FB6000BFFB685A1EFA6002
:103D1C00002BFAD100BF1437BD4680BC704700BFE2
:103D2C0010000020819F5E1680B582B000AF7860D5
:103D3C007B68002B08D00A4B18680A4B1B880122A1
:103D4C001946FDF748FF07E0054B1868054B1B8823
:103D5C0000221946FDF73FFF00BF0837BD4680BD66
:103D6C00A4000020A800002080B582B000AF7860CD
:103D7C007B68002B08D00A4B18680A4B1B88012261
:103D8C001946FDF728FF07E0054B1868054B1B8803
:103D9C0000221946FDF71FFF00BF0837BD4680BD46
:103DAC00A4000020AA00002080B584B000AF034618
:103DBC00FB710020FFF7B8FFFB7903F01F03DBB2A8
:103DCC003B7307F10C01642301220A48FEF7C4FC83
:103DDC0007F10C03591C642301220648FEF7F7FD7A
:103DEC007B7BFB730120FFF79FFFFB7B1846103793
:103DFC00BD4680BDAC00002080B584B000AF03464A
:103E0C003960FB711346BB710020FFF78DFFFB7906
:103E1C0003F01F03DBB23B7307F10C016423012297
:103E2C000848FEF799FCBB799AB2642339680548B7
:103E3C00FEF7CDFD0120FFF777FF00BF1037BD4621
:103E4C0080BD00BFAC00002080B584B000AF03463D
:103E5C000A46FB711346BB710020FFF765FFFB7927
:103E6C0043F02003DBB23B73BB797B7307F10C018E
:103E7C00642302220448FEF76FFC0120FFF754FF75
:103E8C0000BF1037BD4680BDAC00002080B584B0AB
:103E9C0000AF03463960FB711346BB710020FFF77E
:103EAC0043FFFB7943F02003DBB23B7307F10C01BA
:103EBC00642301220848FEF74FFCBB799AB26423B5
:103ECC0039680548FEF748FC0120FFF72DFF00BFBD
:103EDC001037BD4680BD00BFAC00002080B584B05B
:103EEC0000AF78600B46FB7000F006FA03461A46EA
:103EFC00FB78934203D300F0FFF9034600E0FB7814
:103F0C00FB730020FFF710FF6123BB7307F10E0159
:103F1C00642301220848FEF71FFCFB7B9AB2642342
:103F2C0079680548FEF753FD0120FFF7FDFE00BF41
:103F3C001037BD4680BD00BFAC00002080B500AF7F
:103F4C00FF21E120FFF780FF00BF80BD80B500AFEF
:103F5C00FF21E220FFF778FF00BF80BD80B582B063
:103F6C0000AF0720FFF720FF0346FB71FB791846D3
:103F7C000837BD4680BD000082B080B584B000AF6C
:103F8C007860FB610B467B8013463B80664B184682
:103F9C0007F11C035822194601F056FE634A7B6850
:103FAC001360634A7B881380624A3B88138001202C
:103FBC00FFF7BAFE0020FFF7D7FE0520FCF72AF921
:103FCC0008210020FFF740FF3F210120FFF73CFFB5
:103FDC0003210220FFF738FF03210320FFF734FFF2
:103FEC0003210420FFF730FF02210520FFF72CFFEF
:103FFC000F210620FFF728FF0E210720FFF724FFD3
:10400C0000210820FFF720FF00210920FFF71CFFEB
:10401C00E7233B73E723FB72E723BB72E7237B7237
:10402C00E7233B7207F10803052219460A20FFF724
:10403C002DFFC2233B73C223FB72C223BB72C2236C
:10404C007B72C2233B7207F10803052219460B2031
:10405C00FFF71CFFC3210C20FFF7F6FEC4210D2037
:10406C00FFF7F2FEC5210E20FFF7EEFEC6210F2052
:10407C00FFF7EAFEE7233B73E723FB72E723BB72F0
:10408C00E7237B72E7233B7207F1080305221946ED
:10409C001020FFF7FBFE00211120FFF7D5FE0021B9
:1040AC001220FFF7D1FE00211320FFF7CDFE0021D7
:1040BC001420FFF7C9FE00211520FFF7C5FE0021D3
:1040CC001620FFF7C1FE00F0CFFA00211C20FFF7ED
:1040DC00BBFE00211D20FFF7B7FE00F0DFFA0F2119
:1040EC000F2000F0C3F8032000F0A5F9012000F028
:1040FC00DBF9022000F01EFA00F070F9202000F02D
:10410C00E5F800F0A8FA4C2000F0CBF8FFF716FF0A
:10411C00FFF71CFF00F036FA00BF1037BD46BDE8B4
:10412C00804002B0704700BFAC000020A40000200B
:10413C00A8000020AA00002098B500AF0020FFF7CF
:10414C0033FE034643F00303DBB219460020FFF7AE
:10415C007BFE0A4B18CB234304D0052207490A20C7
:10416C00FFF794FEFFF7EAFEFFF7F0FE0120FFF7E2
:10417C00FBFD9620FFF7B8FD00BF98BD980000200E
:10418C0080B500AF002000F00CFA0346184680BD45
:10419C0080B584B000AF78600B46FB70FB78194695
:1041AC007868FFF79BFE1720FFF7FEFD034603F030
:1041BC000103FB73FFF7CAFE00F0A8F8FB7B002B92
:1041CC0014BF01230023DBB218461037BD4680BD57
:1041DC0090B585B000AF0146C7E900230B46FB73D1
:1041EC00FB7B002B04D197E818001C4A82E81800CE
:1041FC00FB7B062B2DD8FB7B012B08D8FB7B184AAD
:10420C00D35C394605221846FFF740FE07E0FB7BDE
:10421C00134AD35C394601221846FFF737FEFB7B65
:10422C00104AD25C104B1B7819461046FFF70CFE57
:10423C000220FFF7B9FD03465AB2FB7B012101FABC
:10424C0003F35BB213435BB2DBB219460220FFF7F8
:10425C00FBFD00BF1437BD4690BD00BF9800002089
:10426C00406A0008486A0008A000002080B582B0AF
:10427C0000AF03460A46FB711346BB71FB791B0169
:10428C005AB297F9063003F00F035BB213435BB2DB
:10429C00DBB219460420FFF7D7FD00BF0837BD4637
:1042AC0080BD80B584B000AF0346FB717F23FB73E8
:1042BC00FA7BFB79934228BF1346DBB219460520E3
:1042CC00FFF7C2FD00BF1037BD4680BD80B485B07E
:1042DC0000AF0346FB712023FB73FA7BFB799342FF
:1042EC0028BF1346DAB2034B1A7000BF1437BD4611
:1042FC0080BC7047A000002080B400AF024B1B783C
:10430C001846BD4680BC7047A000002080B500AFA9
:10431C006020FFF749FD0346184680BD80B500AF0D
:10432C001D20FFF741FD034643F00603DBB219469F
:10433C001D20FFF789FD1D20FFF736FD0346002BDE
:10434C000CD100F091F91D20FFF72EFD034643F030
:10435C000603DBB219461D20FFF776FD1C20FFF784
:10436C0023FD034643F00303DBB219461C20FFF781
:10437C006BFD00BF80BD000080B500AF1D20FFF7B6
:10438C0013FD034643F00403DBB219461D20FFF76F
:10439C005BFD1D20FFF708FD0346002B0CD100F040
:1043AC0063F91D20FFF700FD034643F00403DBB265
:1043BC0019461D20FFF748FD1C20FFF7F5FC0346AE
:1043CC0043F03F03DBB219461C20FFF73DFD024BC7
:1043DC0001221A7000BF80BDA100002080B500AF83
:1043EC001D20FFF7E1FC034623F00403DBB2194662
:1043FC001D20FFF729FD00211C20FFF725FD024B96
:10440C0000221A7000BF80BDA100002080B582B0D0
:10441C0000AF0346FB71FB79002B04D03F21012038
:10442C00FFF712FD03E000210120FFF70DFD00BF97
:10443C000837BD4680BD80B584B000AF0346FB7124
:10444C000620FFF7B1FC0346FB73FB7B23F006034E
:10445C00FB73FB79032B04D1FB7B43F00603FB734B
:10446C0019E0FB79022B04D1FB7B43F00403FB73B3
:10447C0011E0FB79012B04D1FB7B43F00203FB73AE
:10448C0009E0FB79002B06D0FB79042B03D1FB7BD5
:10449C0043F00603FB73FB7B19460620FFF7D4FCA5
:1044AC0000BF1037BD4680BD80B584B000AF034659
:1044BC00FB710023FB730620FFF776FC0346BB73EE
:1044CC001B4B00221A70BB7B23F02803BB73FB79B8
:1044DC00022B07D1164B00221A70BB7B43F0200332
:1044EC00BB730DE0FB79012B07D1114B01221A7024
:1044FC00BB7B43F00803BB7302E00D4B00221A7028
:10450C00BB7B19460620FFF79FFC0620FFF74CFCEF
:10451C0003461A46BB7B934202D10123FB7302E094
:10452C00034B00221A70FB7B18461037BD4680BD2A
:10453C00A200002080B584B000AF0346FB710020C0
:10454C00FFF732FC034623F00C03FB73FB79002BC3
:10455C000FD0FB79012B04D1FB7B43F00803FB73D9
:10456C0007E0FB7B43F00803FB73FB7B43F0040386
:10457C00FB73FB7B19460020FFF766FC00BF10376E
:10458C00BD4680BD80B500AF0020FFF70DFC034693
:10459C0023F00203DBB219460020FFF755FC00BFE5
:1045AC0080BD80B584B000AF7860FFF7D7FC0346C0
:1045BC00FB73FB7B03F04003002B14BF0123002390
:1045CC00BB73BB7B002B17D07B68002B07D0FB7B0E
:1045DC005B08DBB203F00703DAB27B681A70402188
:1045EC000720FFF731FCFB7B03F02003002B03D0EB
:1045FC0020210720FFF728FCBB7B18461037BD464F
:10460C0080BD80B584B000AF03463960FB711346A2
:10461C00BB713B68FB602023FB72FA7ABB79934237
:10462C0028BF1346BB720020FFF77EFB97F90730BB
:10463C0003F007035BB263F057035BB2DBB2BA7AE9
:10464C00F9681846FFF722FC0120FFF76DFB00BF4D
:10465C001037BD4680BD80B500AF70210720FFF735
:10466C00F3FB00BF80BD000080B582B000AF00201E
:10467C00FFF75AFB50233B7173237B71391D642365
:10468C0002220548FEF768F80120FFF74DFB00BF3A
:10469C000837BD4680BD00BFAC000020F0B5A1B00E
:1046AC0004AF07F10803B64A1C4615460FCD0FC4DC
:1046BC000FCD0FC40FCD0FC42B681A4622800234C5
:1046CC001B0C237007F108031846FBF739FD034652
:1046DC009AB207F108010A23AA48FFF70BF9002048
:1046EC00FFF762FB034687F86F3097F86F3003F0E3
:1046FC000803002B20D097F86F3003F00403002B35
:10470C000BD007F10803A04A1C4615460FCD0FC469
:10471C0095E8070084E8070017E007F108039B4AB7
:10472C001C4615460FCD0FC495E8070003C4228024
:10473C000234130C237008E007F10803944A1C465A
:10474C0015460FCD0FC42B68236007F108031846DC
:10475C00FBF7F6FC03469AB207F108010A238948D5
:10476C00FFF7C8F80120FFF71FFB034687F86F30EF
:10477C0097F86F3003F00103002BCCBF012300230B
:10478C00DBB21D4697F86F3003F00203002BCCBF51
:10479C0001230023DBB21E4697F86F3003F00403AD
:1047AC00002BCCBF01230023DBB21A4697F86F30E5
:1047BC0003F00803002BCCBF01230023DBB2194606
:1047CC0097F86F3003F01003002BCCBF01230023AC
:1047DC00DBB21C4697F86F3003F02003002BCCBFE4
:1047EC0001230023DBB207F108000393029401912B
:1047FC00009233462A46674901F03AFA07F108035A
:10480C001846FBF79DFC03469AB207F108010A23F0
:10481C005C48FFF76FF80220FFF7C6FA034687F8EB
:10482C006F3097F86F3003F00103002BCCBF0123DE
:10483C000023DBB21D4697F86F3003F00203002B08
:10484C00CCBF01230023DBB21E4697F86F3003F078
:10485C000403002BCCBF01230023DBB21A4697F8CC
:10486C006F3003F00803002BCCBF01230023DBB215
:10487C00194697F86F3003F01003002BCCBF0123BF
:10488C000023DBB21C4697F86F3003F02003002B9B
:10489C00CCBF01230023DBB207F108000393029481
:1048AC000191009233462A463B4901F0E1F907F1A8
:1048BC0008031846FBF744FC03469AB207F10801BB
:1048CC000A233048FFF716F80320FFF76DFA03466A
:1048DC0003F0030387F86F3097F86F30023387F8D3
:1048EC006F3097F86F2007F108032C49184601F038
:1048FC00BFF907F108031846FBF722FC03469AB2EE
:10490C0007F108010A231F48FEF7F4FF0520FFF703
:10491C004BFA034687F86F3097F86F3003F07F023D
:10492C0007F108031E49184601F0A2F907F1080324
:10493C001846FBF705FC03469AB207F108010A2357
:10494C001048FEF7D7FF0620FFF72EFA034687F82C
:10495C006F3097F86F3003F00803002B24D007F169
:10496C000803104A1C4615460FCD0FC495E80300EA
:10497C0020600434218002340B0C237023E000BF30
:10498C00FC64000804010020306500084C65000838
:10499C00686500087C650008C06500080C660008A6
:1049AC00286600083C66000807F10803294A1C46E3
:1049BC0015460FCD0FC495E8030020600434218008
:1049CC0002340B0C237007F108031846FBF7B8FBF5
:1049DC0003469AB207F108010A231F48FEF78AFF23
:1049EC0097F86F3003F0060387F86F3097F86F3045
:1049FC005B0887F86F3097F86F30002B09D107F1FF
:104A0C000803164A1C4615460FCD0FC42B682360AD
:104A1C0037E097F86F30012B09D107F10803104AE2
:104A2C001C4615460FCD0FC42B68236029E097F860
:104A3C006F30022B18D107F108030A4A1C461546A1
:104A4C000FCD0FC42B681A46228002341B0C237026
:104A5C0017E000BF54660008040100206C660008D3
:104A6C00806600089466000897F86F30032B08D115
:104A7C0007F10803D74A1C4615460FCD0FC42B6807
:104A8C00238007F108031846FBF75AFB03469AB23A
:104A9C0007F108010A23D048FEF72CFF3B460522FC
:104AAC0019460A20FFF7A8F93B791C46FB781D46EE
:104ABC00BB787A78397807F108000291019200935B
:104ACC002B462246C54901F0D3F807F108031846D6
:104ADC00FBF736FB03469AB207F108010A23BE48DE
:104AEC00FEF708FF3B46052219460B20FFF784F919
:104AFC003B791C46FB781D46BB787A78397807F1F0
:104B0C0008000291019200932B462246B44901F011
:104B1C00AFF807F108031846FBF712FB03469AB2ED
:104B2C0007F108010A23AC48FEF7E4FE3B460122DC
:104B3C0019460C20FFF760F93B781A4607F1080379
:104B4C00A849184601F094F807F108031846FBF73A
:104B5C00F7FA03469AB207F108010A239E48FEF7BA
:104B6C00C9FE3B46012219460D20FFF745F93B785B
:104B7C001A4607F108039C49184601F079F807F129
:104B8C0008031846FBF7DCFA03469AB207F1080152
:104B9C000A239148FEF7AEFE3B46012219460E2031
:104BAC00FFF72AF93B781A4607F108038F49184694
:104BBC0001F05EF807F108031846FBF7C1FA03464B
:104BCC009AB207F108010A238348FEF793FE3B468D
:104BDC00012219460F20FFF70FF93B781A4607F10F
:104BEC0008038349184601F043F807F108031846F7
:104BFC00FBF7A6FA03469AB207F108010A23764896
:104C0C00FEF778FE3B46052219461020FFF7F4F814
:104C1C003B791C46FB781D46BB787A78397807F1CE
:104C2C0008000291019200932B462246714901F033
:104C3C001FF807F108031846FBF782FA03469AB2ED
:104C4C0007F108010A236448FEF754FE1120FFF710
:104C5C00ABF8034687F86F3097F86F3003F03F02DC
:104C6C0007F108036449184601F002F807F108033C
:104C7C001846FBF765FA03469AB207F108010A23B6
:104C8C005548FEF737FE1220FFF78EF8034687F8DB
:104C9C006F3097F86F3003F03F0207F10803574964
:104CAC00184600F0E5FF07F108031846FBF748FA31
:104CBC0003469AB207F108010A234748FEF71AFE89
:104CCC001320FFF771F8034687F86F3097F86F30B1
:104CDC0003F03F0207F108034949184600F0C8FFEA
:104CEC0007F108031846FBF72BFA03469AB207F1B3
:104CFC0008010A233848FEF7FDFD1420FFF754F88D
:104D0C00034687F86F3097F86F3003F03F0207F1D6
:104D1C0008033C49184600F0ABFF07F1080318469E
:104D2C00FBF70EFA03469AB207F108010A232A4848
:104D3C00FEF7E0FD1520FFF737F8034687F86F30D4
:104D4C0097F86F3003F03F0207F108032E4918461D
:104D5C0000F08EFF07F108031846FBF7F1F9034644
:104D6C009AB207F108010A231B48FEF7C3FD16206F
:104D7C00FFF71AF8034687F86F3097F86F3003F097
:104D8C003F0207F108032149184600F071FF07F1B3
:104D9C0008031846FBF7D4F903469AB207F1080149
:104DAC000A230D48FEF7A6FD1C20FEF7FDFF034667
:104DBC0087F86F3097F86F3003F00103002BCCBFEE
:104DCC0001230023DBB21D4697F86F3003F002037A
:104DDC001EE000BFA866000804010020BC660008A5
:104DEC00EC6600081C670008446700086C67000844
:104DFC0094670008BC670008E867000804680008AE
:104E0C00206800083C6800085868000874680008AE
:104E1C00002BCCBF01230023DBB21E4697F86F306A
:104E2C0003F00403002BCCBF01230023DBB21A4692
:104E3C0097F86F3003F00803002BCCBF012300233D
:104E4C00DBB2194697F86F3003F01003002BCCBF80
:104E5C0001230023DBB21C4697F86F3003F02003CC
:104E6C00002BCCBF01230023DBB207F10800039316
:104E7C0002940191009233462A464A4900F0F8FE0A
:104E8C0007F108031846FBF75BF903469AB207F1E2
:104E9C0008010A234448FEF72DFD1D20FEF784FF70
:104EAC00034687F86F3097F86F3003F00403002B3C
:104EBC000CD007F108033D4A1C4615460FCD0FC414
:104ECC0095E803002060043421800EE007F108030C
:104EDC00374A1C4615460FCD0FC495E803002060D9
:104EEC000434218002340B0C237007F1080318469C
:104EFC00FBF726F903469AB207F108010A232A4860
:104F0C00FEF7F8FC97F86F3003F00203002B0BD080
:104F1C0007F10803274A1C4615460FCD0FC495E828
:104F2C00070003C422800DE007F10803224A1C4647
:104F3C0015460FCD0FC495E8070003C42280023438
:104F4C00130C237007F108031846FBF7F9F8034616
:104F5C009AB207F108010A231348FEF7CBFC07F1BC
:104F6C000803164A1C4615460FCD0FC40FCD0FC4AF
:104F7C000FCD0FC42B681A46228002341B0C2370F1
:104F8C0007F108031846FBF7DBF803469AB207F162
:104F9C0008010A230448FEF7ADFC00BF7437BD4678
:104FAC00F0BD00BF9068000804010020DC68000818
:104FBC00F46800080C69000828690008FC64000803
:104FCC0090B597B016AFFBF7C3F800F007F900F0F7
:104FDC00CBFA00F051FA00F019FA00F099F900F050
:104FEC0059F900F097FA6D48FEF7B4F86C48FBF7E6
:104FFC000BFA6C4C6846231D5422194600F024FE13
:10500C002368102208216848FEF7B6FF0120FFF73D
:10501C00FDF96720FFF745F92020FFF757F9634B9F
:10502C0018CB1A4623460120FFF7D2F8FFF7A4F954
:10503C00FFF774F9FFF780F8002202215A48FCF7B9
:10504C00CAFD01224FF400615948FCF7C4FDFA2057
:10505C00FBF7E0F800224FF400615548FCF7BBFD6C
:10506C006420FBF7D7F801224FF400615048FCF79D
:10507C00B2FDFA20FBF7CEF800224FF400614C4849
:10508C00FCF7A9FD6420FBF7C5F801224FF4006181
:10509C004748FCF7A0FDFA20FBF7BCF800224FF4C0
:1050AC0000614348FCF797FD4FF47A713C48FBF7DD
:1050BC0059FA3B48FBF750FB02463E4B1A603D4BFE
:1050CC001B683D4AA2FB03231B093C4A13603B4B64
:1050DC001A783B4B1A70394B5A78394B5A70374BFC
:1050EC009A78374B9A70354BDA78354BDA70344BFB
:1050FC0000221A71324B00225A71314B00229A71E4
:10510C002F4B0022DA71FFF73BF80346002B0DD032
:10511C0008212C48FFF73CF8082229490120FFF709
:10512C0070FA4FF400512848FCF76DFD274B032211
:10513C001A60244B1A78264B1A70224B5A78244B3F
:10514C005A70204B9A78224B9A701E4BDA78204B6F
:10515C00DA701C4B1A791E4B1A711A4B5A791C4B6C
:10516C005A71184B9A791A4B9A71164BDA79184B6B
:10517C00DA71184B164A15491748FBF784FE03469B
:10518C00002B01D000F0ECFA80210948FCF73BFD24
:10519C004FF47A70FBF73EF886E700BFA4020020BC
:1051AC00C401002044020020000801400800002037
:1051BC00000C014034020020C94216B2E402002067
:1051CC008C010020BC010020001001404401002093
:1051DC0038020020400200209401002080B594B0D9
:1051EC0000AF07F1280328220021184600F037FDF4
:1051FC0007F1140300221A605A609A60DA601A618F
:10520C003B1D00221A605A609A60DA600123BB626F
:10521C004FF48033FB6200233B630123BB63022307
:10522C007B644FF48033BB644FF4E013FB6407F1F1
:10523C0028031846FCF7F8FC0346002B01D000F0BD
:10524C008FFA0F237B610223BB610023FB614FF4B8
:10525C0080633B6200237B6207F114030221184632
:10526C00FCF746FF0346002B01D000F079FA02232D
:10527C007B604FF40043FB603B1D1846FDF7F6F8CE
:10528C000346002B01D000F06BFA00BF5037BD462F
:10529C0080BD000080B584B000AF3B1D00221A60B9
:1052AC005A609A60184B194A1A60174B00229A6080
:1052BC00154B0122DA60144B00225A61124B4FF449
:1052CC006022DA61104B00225A600F4B01221A61E6
:1052DC000D48FAF7C1FF0346002B01D000F040FA4D
:1052EC0000237B600123BB600023FB603B1D194640
:1052FC000548FBF73DFA0346002B01D000F030FACD
:10530C0000BF1037BD4680BDC40100200024014001
:10531C0080B58AB000AF3A4B3A4A1A60384B092232
:10532C005A60374B00229A60354B0022DA60344BBE
:10533C004FF440221A61324B4FF480125A61304BB9
:10534C0000221A762E4B00225A762D4B00229A768A
:10535C002B4B0022DA762A4B00221A77284B00229C
:10536C005A772748FBF788FB0346002B01D000F047
:10537C00F7F902212248FBF76EFF0346002B01D000
:10538C0000F0EEF900237B610023BB610123FB617C
:10539C0000233B6000237B604FF46043BB60002321
:1053AC00FB6000233B6101233B620E237B623B4687
:1053BC0019461348FBF75AFC0346002B01D000F0AA
:1053CC00CFF9114B01221A600F4B01225A600E4B80
:1053DC000022DA600C4B00229A600B4B08221A61F7
:1053EC00094B00221A750648FBF709FD0346002BF2
:1053FC0001D000F0B5F900BF2837BD4680BD00BF15
:10540C0094010020006400404401002080B500AFEE
:10541C00174B184A1A60164B4FF482725A60144B91
:10542C0000229A60124B0022DA60114B00221A61A2
:10543C000F4B00225A610E4B4FF400729A610C4BC9
:10544C002822DA610A4B00221A62094B00225A62A6
:10545C00074B00229A62064B0A22DA620448FDF7D7
:10546C00EAFD0346002B01D000F07AF900BF80BDA5
:10547C00440200200030014080B586B000AF07F137
:10548C00080300221A605A609A60DA603B460022D8
:10549C001A605A601E4B4FF080421A601C4B48F643
:1054AC009F425A601A4B00229A60194B40F2E73225
:1054BC00DA60174B00221A61154B00229A611448CE
:1054CC00FDF71DFE0346002B01D000F049F94FF407
:1054DC008053BB6007F1080319460D48FDF75CFFCC
:1054EC000346002B01D000F03BF900233B60002366
:1054FC007B603B4619460648FEF759F90346002BDC
:10550C0001D000F02DF900BF1837BD4680BD00BF9B
:10551C00A402002080B500AF114B124A1A60104B48
:10552C004FF4E1325A600E4B00229A600C4B002271
:10553C00DA600B4B00221A61094B0C225A61084BA2
:10554C0000229A61064B0022DA610548FEF785F9C4
:10555C000346002B01D000F003F900BF80BD00BF53
:10556C00F40100200038014080B588B000AF07F18D
:10557C00100300221A605A609A60DA60474A474B5F
:10558C009B6943F010039361444B9B6903F0100338
:10559C00FB60FB68414A414B9B6943F020039361DC
:1055AC003E4B9B6903F02003BB60BB683B4A3B4B03
:1055BC009B6943F004039361384B9B6903F004032C
:1055CC007B607B68354A354B9B6943F008039361DC
:1055DC00324B9B6903F008033B603B6800224FF49D
:1055EC0000512F48FCF7F7FA00224FF400612D48C8
:1055FC00FCF7F1FA002218212B48FCF7ECFA0122F7
:10560C0002212948FCF7E7FA4FF400533B610123D0
:10561C007B610023BB610223FB6107F11003194678
:10562C001F48FCF763F91A233B6101237B610023BC
:10563C00BB610223FB6107F1100319461A48FCF702
:10564C0055F904233B6100237B610023BB6107F107
:10565C00100319461448FCF749F980233B610123D8
:10566C007B610023BB610223FB6107F11003194628
:10567C000C48FCF73BF94FF400633B6101237B6161
:10568C000023BB610223FB6107F110031946054897
:10569C00FCF72CF900BF2037BD4680BD001002403E
:1056AC0000100140000C01400008014080B582B0A0
:1056BC0000AF78607B681B68B3F1804F2CD104215C
:1056CC001748FCF771FA0346002B1CD0154B1B68CE
:1056DC000133144A13604FF400511348FCF793FA4A
:1056EC00104B1B68032B17DD0E4B00221A60012296
:1056FC004FF400610D48FCF76EFA012202210848B4
:10570C00FCF769FA08E000224FF400610748FCF747
:10571C0062FA044B00221A6000BF0837BD4680BDF8
:10572C00000801407801002000100140000C0140ED
:10573C0080B582B000AF7860074B084A00217868CA
:10574C00FBF777FC0346002B01D000F009F800BFF3
:10575C000837BD4680BD00BF9C0200205C010020C4
:10576C0080B400AF00BFBD4680BC704780B483B02E
:10577C0000AF0E4A0D4B9B6943F0010393610B4B39
:10578C009B6903F001037B607B68084A074BDB696C
:10579C0043F08053D361054BDB6903F080533B60CE
:1057AC003B6800BF0C37BD4680BC70470010024000
:1057BC0080B588B000AF786007F1100300221A6042
:1057CC005A609A60DA607B681B68144A934221D154
:1057DC00134A134B9B6943F400739361104B9B6901
:1057EC0003F40073FB60FB680D4A0D4B9B6943F09F
:1057FC00040393610A4B9B6903F00403BB60BB6811
:10580C0001233B6103237B6107F110031946054813
:10581C00FCF76CF800BF2037BD4680BD002401406A
:10582C00001002400008014080B58AB000AF7860DB
:10583C0007F1140300221A605A609A60DA607B68E0
:10584C001B68294A93424BD1284A284BDB6943F009
:10585C000073D361254BDB6903F000733B613B693B
:10586C00224A224B9B6943F0080393611F4B9B69AF
:10587C0003F00803FB60FB684FF480737B6100232B
:10588C00BB610023FB6107F1140319461848FCF7B0
:10589C002DF84FF400737B610223BB6103233B6241
:1058AC0007F1140319461248FCF720F8114B5B68FA
:1058BC007B627B6A23F4C0437B627B6A43F0E063C8
:1058CC007B627B6A43F480437B620A4A7B6A536047
:1058DC00002200211420FBF7D2FF1420FBF7EBFF72
:1058EC0000BF2837BD4680BD006400400010024058
:1058FC00000C01400000014080B588B000AF78601A
:10590C0007F1100300221A605A609A60DA607B6813
:10591C001B681B4A93422FD11A4A1A4B9B6943F4BA
:10592C0080539361174B9B6903F48053FB60FB68B6
:10593C00144A144B9B6943F004039361114B9B690C
:10594C0003F00403BB60BB68A0233B6102237B61B3
:10595C000323FB6107F1100319460B48FBF7C6FF45
:10596C0040233B6100237B610023BB6107F11003E3
:10597C0019460548FBF7BAFF00BF2037BD4680BD6E
:10598C0000300140001002400008014080B584B096
:10599C0000AF78607B681B68B3F1804F13D10C4A61
:1059AC000B4BDB6943F00103D361094BDB6903F05B
:1059BC000103FB60FB68002200211C20FBF75FFF4A
:1059CC001C20FBF778FF00BF1037BD4680BD00BF21
:1059DC000010024080B588B000AF786007F110036A
:1059EC0000221A605A609A60DA607B681B681C4A55
:1059FC00934231D11B4A1B4B9B6943F48043936107
:105A0C00184B9B6903F48043FB60FB68154A154BEC
:105A1C009B6943F004039361124B9B6903F00403ED
:105A2C00BB60BB684FF400733B6102237B610323B3
:105A3C00FB6107F1100319460B48FBF757FF4FF4B6
:105A4C0080633B6100237B610023BB6107F1100382
:105A5C0019460548FBF74AFF00BF2037BD4680BDFD
:105A6C0000380140001002400008014080B400AF33
:105A7C0000BFBD4680BC704780B400AFFEE780B469
:105A8C0000AFFEE780B400AFFEE780B400AFFEE7E6
:105A9C0080B400AF00BFBD4680BC704780B400AF7F
:105AAC0000BFBD4680BC704780B400AF00BFBD4690
:105ABC0080BC704780B500AFFAF790FB00BF80BD8B
:105ACC0080B500AF0248FBF7EBFB00BF80BD00BF09
